:020000040000fa
:080000000002040000000000f2
:020000040000fa
:0400080048030000a9
:020000040000fa
:04000c0048030000a5
:020000040000fa
:0400100048030000a1
:020000040000fa
:04001400480300009d
:020000040000fa
:040018004803000099
:020000040000fa
:04001c004803000095
:020000040000fa
:040020004803000091
:020000040000fa
:04002400480300008d
:020000040000fa
:040028004803000089
:020000040000fa
:04002c004803000085
:020000040000fa
:040030004803000081
:020000040000fa
:04003400480300007d
:020000040000fa
:040038004803000079
:020000040000fa
:04003c004803000075
:020000040000fa
:040040004803000071
:020000040000fa
:04004400480300006d
:020000040000fa
:040048004803000069
:020000040000fa
:04004c004803000065
:020000040000fa
:040050004803000061
:020000040000fa
:04005400fc020000aa
:020000040000fa
:04005800cc020000d6
:020000040000fa
:04005c004803000055
:020000040000fa
:040060004803000051
:020000040000fa
:04006400480300004d
:020000040000fa
:040068004803000049
:020000040000fa
:04006c004803000045
:020000040000fa
:040070004803000041
:020000040000fa
:04007400480300003d
:020000040000fa
:040078004803000039
:020000040000fa
:04007c004803000035
:020000040000fa
:040080004803000031
:020000040000fa
:04008400480300002d
:020000040000fa
:040088004803000029
:020000040000fa
:04008c004803000025
:020000040000fa
:040090004803000021
:020000040000fa
:04009400480300001d
:020000040000fa
:040098004803000019
:020000040000fa
:04009c004803000015
:020000040000fa
:0400a0004803000011
:020000040000fa
:0400a400480300000d
:020000040000fa
:0400a8004803000009
:020000040000fa
:0400ac004803000005
:020000040000fa
:0400b0004803000001
:020000040000fa
:0400b40048030000fd
:020000040000fa
:0400b80048030000f9
:020000040000fa
:0400bc0048030000f5
:020000040000fa
:0400c00048030000f1
:020000040000fa
:0400c40048030000ed
:020000040000fa
:0400c80048030000e9
:020000040000fa
:0400cc0048030000e5
:020000040000fa
:0400d00048030000e1
:020000040000fa
:0400d40048030000dd
:020000040000fa
:0400d80048030000d9
:020000040000fa
:0400dc0048030000d5
:020000040000fa
:0400e00048030000d1
:020000040000fa
:0400e40048030000cd
:020000040000fa
:0400e80048030000c9
:020000040000fa
:0400ec0048030000c5
:020000040000fa
:0400f00048030000c1
:020000040000fa
:0400f40048030000bd
:020000040000fa
:0400f80048030000b9
:020000040000fa
:0400fc0048030000b5
:020000040000fa
:0401000048030000b0
:020000040000fa
:0401040048030000ac
:020000040000fa
:0401080048030000a8
:020000040000fa
:04010c0048030000a4
:020000040000fa
:0401100048030000a0
:020000040000fa
:04011400480300009c
:020000040000fa
:040118004803000098
:020000040000fa
:04011c004803000094
:020000040000fa
:040120004803000090
:020000040000fa
:04012400480300008c
:020000040000fa
:040128004803000088
:020000040000fa
:04012c004803000084
:020000040000fa
:040130004803000080
:020000040000fa
:04013400480300007c
:020000040000fa
:040138004803000078
:020000040000fa
:04013c004803000074
:020000040000fa
:040140004803000070
:020000040000fa
:04014400480300006c
:020000040000fa
:040148004803000068
:020000040000fa
:04014c004803000064
:020000040000fa
:040150004803000060
:020000040000fa
:04015400480300005c
:020000040000fa
:040158004803000058
:020000040000fa
:04015c004803000054
:020000040000fa
:040160004803000050
:020000040000fa
:04016400480300004c
:020000040000fa
:0402080048030000a7
:020000040000fa
:04020c0048030000a3
:020000040000fa
:04021000480300009f
:020000040000fa
:04021400480300009b
:020000040000fa
:040218004803000097
:020000040000fa
:04021c004803000093
:020000040000fa
:04022000480300008f
:020000040000fa
:04022400480300008b
:020000040000fa
:040228004803000087
:020000040000fa
:04022c004803000083
:020000040000fa
:04023000480300007f
:020000040000fa
:04023400480300007b
:020000040000fa
:040238004803000077
:020000040000fa
:04023c004803000073
:020000040000fa
:04024000480300006f
:020000040000fa
:04024400480300006b
:020000040000fa
:040248004803000067
:020000040000fa
:04024c004803000063
:020000040000fa
:04025000480300005f
:020000040000fa
:04025400480300005b
:020000040000fa
:040258004803000057
:020000040000fa
:04025c004803000053
:020000040000fa
:04026000480300004f
:020000040000fa
:04026400480300004b
:020000040000fa
:040268004803000047
:020000040000fa
:04026c004803000043
:020000040000fa
:04027000480300003f
:020000040000fa
:04027400480300003b
:020000040000fa
:040278004803000037
:020000040000fa
:04027c004803000033
:020000040000fa
:04028000480300002f
:020000040000fa
:04028400480300002b
:020000040000fa
:040288004803000027
:020000040000fa
:04028c004803000023
:020000040000fa
:04029000480300001f
:020000040000fa
:04029400480300001b
:020000040000fa
:040298004803000017
:020000040000fa
:04029c004803000013
:020000040000fa
:0402a000480300000f
:020000040000fa
:0402a400480300000b
:020000040000fa
:0402a8004803000007
:020000040000fa
:0402ac004803000003
:020000040000fa
:0402b00048030000ff
:020000040000fa
:0402b40048030000fb
:020000040000fa
:0402b80048030000f7
:020000040000fa
:0402bc0048030000f3
:020000040000fa
:0402c00048030000ef
:020000040000fa
:0402c40048030000eb
:020000040000fa
:0402c80048030000e7
:020000040000fa
:0402cc0048030000e3
:020000040000fa
:0402d00048030000df
:020000040000fa
:0402d40048030000db
:020000040000fa
:0402d80048030000d7
:020000040000fa
:0402dc0048030000d3
:020000040000fa
:0402e00048030000cf
:020000040000fa
:0402e40048030000cb
:020000040000fa
:0402e80048030000c7
:020000040000fa
:0402ec0048030000c3
:020000040000fa
:0402f00048030000bf
:020000040000fa
:0402f40048030000bb
:020000040000fa
:0402f80048030000b7
:020000040000fa
:0402fc0048030000b3
:020000040000fa
:0403000048030000ae
:020000040000fa
:0403040048030000aa
:020000040000fa
:0403080048030000a6
:020000040000fa
:04030c0048030000a2
:020000040000fa
:04031000480300009e
:020000040000fa
:04031400480300009a
:020000040000fa
:040318004803000096
:020000040000fa
:04031c004803000092
:020000040000fa
:04032000480300008e
:020000040000fa
:04032400480300008a
:020000040000fa
:040328004803000086
:020000040000fa
:04032c004803000082
:020000040000fa
:04033000480300007e
:020000040000fa
:04033400480300007a
:020000040000fa
:040338004803000076
:020000040000fa
:04033c004803000072
:020000040000fa
:04034000480300006e
:020000040000fa
:04034400480300006a
:020000040000fa
:040348004803000066
:020000040000fa
:04034c004803000062
:020000040000fa
:04035000480300005e
:020000040000fa
:04035400480300005a
:020000040000fa
:040358004803000056
:020000040000fa
:04035c004803000052
:020000040000fa
:04036000480300004e
:020000040000fa
:04036400480300004a
:020000040000fa
:10040000cfa720000e7f24000e018800000000000e
:10041000000020000000e000020032000001200087
:1004200020028800140007009b0007000000e00085
:1004300003003a00407e2100010020000200370046
:100440000000200001002000810f70000100320038
:1004500014000700000020000000e000020032004d
:100460000000020000000000221602000000000050
:100470000040da000000fe004440a900c000200057
:100480000000e0000300320000002000a00188000e
:100490004440a800000006008a1f78008b1f7800e7
:1004a0000000060091018800800478000000eb0045
:1004b0001a003700e284440032a0b4009905ba0063
:1004c000e284440032a0b4009906ba00e2844400f9
:1004d00032a0b4000006eb00476fde00fd07b2005b
:1004e000636ce10003003a00ebff07000000eb0043
:1004f0000a003700606ce10004003a00005deb0088
:100500008b05e900fdff3e00040037006168e10053
:10051000010032000086eb000b00070019c7ba008b
:100520001905ba000e04e00003003a000a00e000da
:10053000e0ff3a0000000600fe07b2009e018800be
:100540008a047800f5ff3700395dba008b05e900b1
:100550000c003200295dba008b05e900080032006a
:100560000c00e00003003a00e284440032a0b40032
:10057000f5ff370019ddba008b05e900faff3a00f4
:100580008904e800e184440032a0b40000000600c1
:10059000a406040000000000809fbe000000fa00d6
:1005a0008580a9001140800000408000808f5000ad
:1005b0000d0032001040800081802000e140780072
:1005c0008180fb00211188000000e80010408800b5
:1005d00011408000a00f2000808f500003003a00df
:1005e0000228ef00010037009580a9000080fa0082
:1005f0004f00be0000400600809fbe00821f7800b2
:100600000000fa008560a900204080008000e8001a
:1006100030408000808f5000070032002140800071
:10062000900f2000808f500008003a00304080007a
:100630000000e00005003a0051168000f0ff2e0097
:1006400000806000501688000d00370020408000b8
:1006500031118000014178002190200082707800e3
:10066000204080000000e8002040880021408000f9
:10067000a00f2000808f500001003a000428ef00f6
:100680000080fa004f0178004f00be0000400600d5
:100690000040da000000fe000000050003f0a200a8
:1006a000889fbe008a9fbe008c1f78000b01070048
:1006b000120133006450e1004f0032006420e10079
:1006c0005200320003826c0007003b000905d00095
:1006d0000306d000820f54000c065d0002003900b2
:1006e00002003200890178000306780085825500f7
:1006f00004003d000003fd008103fd008502ea00c7
:100700008b854200840f720002003b0060001000e5
:10071000e08018006011b8000005eb007a28e100c5
:100720000a00390006007800c75ddd00f707b20057
:10073000878075002d003700828171000a017800e2
:10074000610560008180d1000080d3008502e9004e
:10075000f9ff3b00060440008784480002003b008c
:1007600060041400e0841c000988a3000700320024
:100770008a81710082817100610164008904d10065
:100780000884d3008b05e800170037000978a30020
:1007900013003a000b00e000130034008b05e90061
:1007a0000804440089844c000a4474000978a300ba
:1007b0000d003a000b00e000070034008b05e90053
:1007c0000804440089844c0001003a000b0020001a
:1007d0000978a300f7ff32000001eb0002003700a8
:1007e000828171000a017800810007000cf0a700e7
:1007f00001f0a000ca0037006420e10002003a00c6
:10080000838f6c00ca0033000801be000200be00e6
:10081000c3003700889fbe008a9fbe008c1f7800ef
:10082000ae000700b500330003866c006450e100a1
:100830002e0032006420e100330032006150e100fc
:100840002f0032006120e100310032008585550023
:10085000eb07b00009002000080420000500370065
:100860000804440089844c000a0031000603430058
:1008700087834b000001530081815b00f8ff330048
:100880000203be000800a0000804440089844c0054
:10089000f6ff3900c639dd00830173000100320024
:1008a000130020008904d1000884d3000998a30014
:1008b000050032000800a7000300a0008904d10051
:1008c0000884d3008b05e8008904d1000884d30094
:1008d0000001eb000281d2004500070001f0a100f9
:1008e0000cf0a70001f0a0008d0037006420e100ab
:1008f0008f0032000801be000200be00f7ff370083
:100900006120e1008a0032006000b800f3ff370088
:100910000000200001f82700f0ff3700839f6800e7
:100920000100e00002003d0060001000e0801800bf
:100930000300e00002003d0060011100e0811900a9
:10094000b20007004f00e00002003b006000100012
:10095000e0801800000006000001be004a00070009
:100960000470a70003f0a1006509b1001600320071
:100970000d0035006828e10006003500f0ff2f006b
:10098000f1ff27000300e00013003b0001002800f6
:100990000000050000004000818048008502e90059
:1009a000fcff3a0008003700f88f420002003c00cc
:1009b0008000eb00000005008100d1000080d30022
:1009c0008502e800fcff3a000300e00002003b0063
:1009d00060001000e0801800000006004f89de0073
:1009e00082017800990037006011b800a700370035
:1009f00081002000618055000b003d000b002000ad
:100a000061fe2f000100e1001d00340082817100b1
:100a1000610164008904d1000884d3000000e8006b
:100a2000faff3a00710020006100640003007000ca
:100a3000020060000900320061044400e0844c00c0
:100a40000988a500050032008b05e8006808e10070
:100a500002003a008904d1000884d300f20f20007c
:100a60000258e10005003d00c75ddd00f907b20056
:100a70008980750008007800000006000bf8270048
:100a80008b00780000000500c70ade00f107b20005
:100a9000f50fb20008003200e1cf42000200320040
:100aa0000170a00024000500810f700001003200d9
:100ab0000408050044000500810f700002003a00a0
:100ac000140005008502e9000000400081c04800d4
:100ad000fcff3b000170a000240005000004be00e4
:100ae000e9ff07000003be000405be000200be00cf
:100af000e5ff0700844f7500000006000200be00fd
:100b00006450e100050036006420e1000200360078
:100b10000968a30001003a000800be000160a000bf
:100b20004f0678004f05be004f04be0000000600cf
:100b3000f0ff2f00f1ff2700f9ff3700889fbe006c
:100b40008a9fbe008c1f7800e4ff0700ebff330094
:100b500003866c006450e100240032006420e10050
:100b6000270032006150e100220032006120e100e4
:100b7000210032008b854200eb07b1000134b80040
:100b8000003ab8000804420089844a00013ab800db
:100b90000030b8008880400009014a00040033009a
:100ba0000000400081804800020149008b05e900f7
:100bb000c909dd008301700001003200130020002c
:100bc000c814de004814dd004709de001200b20040
:100bd000c808de000884700085ff070001f0a1004e
:100be0000cf0a70001f0a000cdff37006120e1006c
:100bf000cfff32000801be000200be00f7ff370041
:100c00006150e100fcff3a00c9ff37006022b800e4
:100c1000060220000000d0008180d2000482d200b1
:100c20008582d2000000a0000202520083825a0096
:100c3000030031000202420083824a000000a1004a
:100c40000603e900f3ff3a0000000600881f780061
:100c5000030478000300e00007003d00600010007e
:100c6000e080180060011900e081190002003b00db
:100c700001f02d00030037000400070008f0a70072
:100c800001f0a0004f04780000000600889fbe001d
:100c90008a9fbe000082700004027100048271000d
:100ca000260032000004be000200be006011b80041
:100cb0006b092000950220000182cf000a00390054
:100cc0000541b1000082cf00070039000541b100a5
:100cd0000982cf00040039000541b1000882cf002d
:100ce000010039000541b1000542520012003200f6
:100cf0000a003b0082817100610164008100d10023
:100d00000080d3008984d3000884d3008b05e800d9
:100d10000442e800f7ff3a000700370008044400e7
:100d200089844c0000004800818048008b05e90060
:100d30000442e900f9ff3a002dff07004f05be000d
:100d40004f04be0000000600881f780002047800ef
:100d500008017800c4000700080040004f04780034
:100d6000000006000000fa00881f780000047800e8
:100d7000ea8157003fb9970088007800406a200058
:100d8000070007000000e000020035008040eb0093
:100d9000017478004f0478000080fa00000006001b
:100da0006200fa00889fbe008a1f78000005780064
:100db00081047800020478008300780080f92f0015
:100dc0000f004000770107009a979f00a9979f00a6
:100dd0000000eb00b09f9f001885fb008a04fb0019
:100de0000a05ea004f55de0050022000808f5400b3
:100df0000d003200e10f55000b003a000a017800a7
:100e0000880078002f9097009f91970003000100c1
:100e1000a0979f000000e0008e0032003f989700ee
:100e20000000e800b09f9f000a0444005002200028
:100e3000808f5400040032000900e000e6ff3a0011
:100e40003f989700840037000000eb00909f9f00c0
:100e5000809f9f00f0979f00e0979f00d0979f0092
:100e6000c0979f000700370061a7200001005000d5
:100e700000004000a1a6200061007800df989700e4
:100e800001007000d09f9f0088047800090478005a
:100e9000384578008a00fb0060a720007900070031
:100ea0000000e000f0ff3a00a1c2b300814f5500fe
:100eb0000e003a00cf8897000180e900c08f9f00a4
:100ec00010007800c09f9f000000e00005003d007a
:100ed0000000ea00c09f9f005f9897000020a000dc
:100ee000d09f9f000904e8000f003700c09f9f00bb
:100ef0000000eb0005003700f2ff2700820f5000d2
:100f0000020032006a01b900028040000904780042
:100f100088047800b900fb000103b100e98f50009c
:100f2000f5ff3600c09f9f00e0c2b300984f10004d
:100f3000020032000080eb0019003700a0c2b300ad
:100f4000d84f100007003a00cf8897000180e900d1
:100f5000c08f9f0010007800a09f9f000804e80049
:100f6000100037000000eb00a09f9f008800780071
:100f700005003700f3ff2700830f50000200320006
:100f80006a02b9000400410001047800880078007a
:100f90003101fb000203b100e90f5100f5ff3600fb
:100fa000a09f9f00984478008900fb0020a62000a5
:100fb000340007000000e000020032000804e800ee
:100fc000010037008044eb00c97f9f0080c6b3005a
:100fd00080cf540004003a0098cf14000a003a0071
:100fe0006640500006003700c0c6b30080cf5400f2
:100ff00005003a0098cf140003003a006540400015
:10100000c07f9f000804e8001801fb00e3fb2f00ed
:101010008f81410081f92f008f804000a0f92f00bf
:101020000f004000e10007000000e00009003a0066
:10103000e1fb2f008f804000a0f92f000f0040003f
:101040001c0007000000e000020035000804e80072
:1010500061ff37000080eb004f0578004f04be00b1
:101060000080fa00000006008001780002003700ce
:10107000b15978000201e9000200e000fcff3a00eb
:1010800000000600020037000304e0000600320002
:101090000001780002007800b041780081cf510053
:1010a000f9ff3a00010037000001eb000200780070
:1010b000000006000400fa00889fbe008a9fbe0060
:1010c0008c1f78000004780001067800f80d90006d
:1010d00078009000808555000808900080855500b4
:1010e00018089000808555002808900080855500dc
:1010f000380890008085550048089000808555008c
:101100000002220090bf9f0000032300a0bf9f00a9
:10111000081090000028a30015003a000b00e00022
:10112000130034000b0578008a047800e20f5500a4
:101130000100360029002000c80190000901780054
:10114000ee80570058009000030001005004980002
:101150000000e0008c0032006808900009004000a8
:10116000600c9800090555004240a900eeff3c00c4
:10117000780190000200e0000c003400c8019000eb
:101180008c00780058009000030001005004980083
:101190008080eb000000e0007c003200e808900056
:1011a0007800900000804000600c9800880c90004f
:1011b0000900e0001100340009057800e28f5400b6
:1011c000010036002a002000c80190000a017800c2
:1011d000ec80570058009000030001005004980074
:1011e0000000e00068003200680890000a0040003b
:1011f000600c98008a845400edff370018099000b5
:101200000200e0000c003400c8019000e8009000eb
:101210005800900003000100500498008080eb000b
:101220000000e00059003200e80890001808900023
:1012300000804000600c9800a80c90000900e000bd
:101240001100340009057800e28f540001003600d7
:101250002a002000c80190000a017800ec805700a5
:101260005800900003000100500498000000e000c6
:1012700045003200680890000a004000600c9800a9
:101280008a845400edff3700380990000200e00026
:101290000e003400e80090001808900080804000a4
:1012a000c80190005800900003000100500498000d
:1012b0008080eb000000e00034003200e80890007d
:1012c0003808900000804000600c9800c80c900026
:1012d0000900e0001100340009057800e28f540095
:1012e000010036002a002000c80190000a017800a1
:1012f000ec80570058009000030001005004980053
:101300000000e00020003200680890000a00400061
:10131000600c98008a845400edff3700081090009c
:101320008000eb000028a300180032000b00e00052
:10133000160034008b04780009057800e28f540011
:10134000010036002a002000c80190000a01780040
:10135000ee805700580090000300010050049800f0
:101360000000e00008003200680890000a00400019
:10137000600c98008a8454004240a900eeff3c00b3
:101380008000eb00010037008080eb000100780056
:101390004f0678004f05be004f04be000080fa00e3
:1013a000000006000108780000000600889fbe00cb
:1013b0008a9fbe00e4c6b300844f5100be003200d5
:1013c00010003c006b425200844f51001800320064
:1013d00005003c0054c2b300844f5100f6003200b7
:1013e00084c5b3000f00370044c6b300844f5100da
:1013f0001400320065424200844f5100f1003a006f
:101400001000370004c7b300844f5100dd003200e4
:101410005600350065424200844f510053003200af
:1014200063424200844f5100e6003a004f0037000b
:101430001181e90082087800f000900012417800e4
:10144000de00370020629000c5c6b300854f520011
:1014500007003a0091027800648252008408780004
:101460001402be004fabde00860378001400370084
:1014700015c7b300854f520003003a0011047800ed
:101480006802540005003700a5c6b300854f52001e
:1014900006003a00910478006882540084087800bd
:1014a0005403be004402be00050037001182e9006b
:1014b0008408780014027800cfa2de00612bb90006
:1014c0000498be000690be00a060900088c6b300dd
:1014d00088cf50000d00320028c6b30088cf5000de
:1014e00004003a000402fb00cfa2de00612bb90029
:1014f0000800370048c7b30088cf5000030032000f
:101500006644440088cf500004003a00cfa2de00b9
:10151000612bb9000498be000690be003002be00e8
:101520002003be00f0009000e00f5200e08f5a0050
:10153000e00f5b00e08f5b0002003d00d4c2b3000f
:1015400008003700001290000418a30002003200c7
:10155000b4c2b300030037000408a30051003200f6
:1015600004c2b30084f178004c0037002062900080
:10157000c5c6b300854f520008003a001105780037
:1015800064025500840878001404be006055b80059
:101590000802be000a03be001400370015c7b300de
:1015a000854f520003003a0091047800688254008d
:1015b00005003700a5c6b300854f520006003a006b
:1015c0001105780068025500840878005403be00b5
:1015d0004402be00050037001182e900840878004b
:1015e000140278008002eb006033b8000498be005b
:1015f0000690be00a060900088c6b30088cf50005f
:101600000d00320028c6b30088cf500004003a0015
:101610000482fb008002eb006033b8000800370052
:1016200048c7b30088cf500003003200664444002e
:1016300088cf500004003a008002eb006033b8000d
:101640000498be000690be00801090000138a300f0
:10165000140032003002be002003be00e00f520032
:10166000e08f5a00e00f5b00e08f5b000d0032005e
:1016700081c7b300814f51000300320081c5b30020
:10168000814f510007003a00f000900004c3b300fe
:1016900084f178008100e80082f178008100e800a0
:1016a00071009800f0009000818141006300980073
:1016b000824078003e003700a0619000c4c6b300ad
:1016c0001181e90084cf5100220032000a003c0061
:1016d0006442520084cf51002500320004c2e80069
:1016e00084cf5100130032006842520084cf510071
:1016f0001e003a000a00370044c7b30084cf5100ef
:101700001b0032006642420084cf510018003200b4
:101710006942520084cf510014003a00050037009e
:101720008208780092007800405890008048780045
:101730002c0037008208780092007800600a900040
:10174000cfa2de00612bb9008498be008690be0057
:101750002400370082087800920078006009900029
:10176000cf91de008288be001e0037001181e900a3
:101770008208780092007800600890008008780065
:10178000180037001181e900820878001202780001
:10179000cfa2de00612bb9000498be000690be0007
:1017a000f0009000818141006300980081c7b30080
:1017b000100007000b003700f000900082f1780065
:1017c00006003700f0009000818141000204e00033
:1017d00001003a0052c2b300824978008100e8005b
:1017e000710098000000eb004f05be004f04be00e2
:1017f00000000600fc874700889fbe008a9fbe004d
:101800008c9fbe008e1f78000006780080c5b30054
:1018100080cf50000a0032007740400080cf500057
:101820000a0032006940400080cf50000b003200b7
:1018300010a5200080bf9f00ae0020000a003700e6
:1018400002a4200082bf9f000600370013a52000dd
:1018500083bf9f008e0020000300370014a52000e6
:1018600084bf9f000e0120003c02be002c03be007e
:101870000605be000404be0040c6b30080cf500081
:10188000030032006540400080cf50000b003a005a
:10189000e00f5200e08f5a00e00f5b00e08f5b002a
:1018a00006003d006000b8006011b800040450005c
:1018b000858458000605590087855900e80f5700b0
:1018c0000400320040002000f00f570038003a00ba
:1018d0000100370030002000e00f5400e08f5c0072
:1018e000e00f5d00e08f5d0004003a00dc0890002e
:1018f0008d0120000100e000060032008e00e900aa
:10190000888060008fba9700e5c07800f1ef9f00f3
:101910007d012000800078008100e900050033008f
:101920008b05d1000a85d3008984d3000884d300b5
:10193000f9ff3700089ebe000a96be00120037006d
:101940008d06e9008e00e900848060000fb99700e1
:10195000e2c1780082fd2f000f01410003f17e00fb
:10196000800078008100e900050033008783d10002
:101970000683d3008582d3000482d300f9ff3700a9
:10198000049ebe000696be003c02be002c03be00b4
:10199000e00f5200e08f5a00e00f5b00e08f5b0029
:1019a0008b0034000d00e000e5ff3c0088003700ac
:1019b0002c60900081c6b300814f50000b003200b4
:1019c00006003c000004e00008003200e6c05000c1
:1019d000814f50004e003a0004003700c1c6b300ea
:1019e000814f50004a003a00210037000800e00013
:1019f00004003a005c0890008d0120000000e00027
:101a000006003200110009000e84d8000fb99700bb
:101a1000e2c07800f1ef9f007d0120001100090075
:101a20000e84d8000a003700110009000e04d80007
:101a30008d06e9000e81b900020454008fb89700aa
:101a400061417c0081fd2f008f80400082f07e008c
:101a5000000478000800e000020032000d00e00001
:101a6000f1ff3c00cfc4de00614db9002500370016
:101a7000e00f5400e08f5c0004003a005c08900026
:101a80008d0120000000e000070032006171b90004
:101a90000800be00860007008fb99700e341780078
:101aa000f3ef9f007d0120006171b9000800be00c6
:101ab00056fc07000b0037006171b9000800be003a
:101ac00096fb07008d06e90000f1b90002045400fe
:101ad0000fba9700e4427c0084fd2f000f02420001
:101ae00005f27e000004be00e00f5000e08f5800b9
:101af000020032000d00e000efff3c004fcdde00a1
:101b00008a057800089ebe000a96be0030003700a5
:101b1000e00f5400e08f5c00e00f5d00e08f5d009f
:101b200004003a005c0890008d0120000000e000f5
:101b3000090032006172b900612bb9000800be00d3
:101b40000a01be00fd0007000fba9700644278004a
:101b5000f4ef9f007d0120006172b900612bb90094
:101b60000800be000a01be00ed0007000d003700ae
:101b70006172b900612bb9000800be000a01be0005
:101b8000f20007008d06e90000f2b90004045400d9
:101b90008fba970065427c0085fd2f008f8242003e
:101ba00084f27e00009ebe000296be003c04be0091
:101bb0002c05be00e00f5400e08f5c00e00f5d00dc
:101bc000e08f5d00020034000d00e000e8ff3c0003
:101bd000e80f570010003a000c1090000038a300e6
:101be0000d003200f78f560006003e0085fd2f00e5
:101bf0008f824200e5c07e0000c3b30080cf50005a
:101c0000050032008d06e90002c3b30081fd2f00fc
:101c10008f80400082f07e0078811600120e9800be
:101c20006c00900083fd2f008f8141008d8041006a
:101c30000dfd07001c089000dc089000810f50008b
:101c400006003d0000805000000e98000c1090002f
:101c50000040a100001698000f0037000100e000ce
:101c60000d003d008c109000f4806000f08f50005b
:101c700009003a007c099000fc00900081005100ae
:101c80000c09900082805000008050004240a90062
:101c900001003400000e98004f0778004f06be0088
:101ca0004f05be004f04be00cf01b100000006008a
:101cb000d6fb07000400be0000000600889fbe009f
:101cc0008a9fbe0030044200b0844a0030054b00b9
:101cd00090854b006000b1000898be000a90be00dd
:101ce0000440e10005c8e10006d0e10007d8e100aa
:101cf00002003100680040001008e8004f05be00f7
:101d00004f04be0000000600889fbe008a9fbe00f0
:101d10003004be002005be000418540005985c0085
:101d200006185d0007985d00110020000440e100e6
:101d300005c8e10006d0e10007d8e1000100390044
:101d40008000eb00108810004f05be004f04be005d
:101d5000000006001200fa00889fbe008a9fbe00a5
:101d60008c9fbe00e0b79f00f1b79f0082bf9f002d
:101d700093bf9f000605be000404be000000eb00f8
:101d8000d0b79f00c0b79f00b0b79f00a0b79f001b
:101d900090b79f000006eb005fb19700cfb09700af
:101da000820141003fb097000200e00004003d00c6
:101db000370007007e805700c0ff07000300370090
:101dc000330007007e805700cfff0700dfb6970083
:101dd0000d00e0000c0035006fb29700ffb29700d5
:101de0000fbb97009fbb9700100020000100200050
:101df0006011b80000027200818272000203730059
:101e0000838373001b0007000c06e8000104200018
:101e1000810f5600e0ff3a000d00e00004003d0095
:101e20000802be000a03be007e805700a3ff070021
:101e30005fa897000000e00005003a001fb297007d
:101e4000afb297003fb39700cfb3970009000700e8
:101e50006fb09700ffb097000fb997009fb9970038
:101e60004f06be004f05be004f04be000080fa00c2
:101e7000000006000100070000000600a4b79f0054
:101e8000b5b79f00c6b79f00d7b79f0000000600f8
:101e90004f09de0082817100b3b79f004f01de0061
:101ea0008180400082807000a1b79f008fb09700b2
:101eb0004f09de00000040000200700090b79f0054
:101ec0007fa897004f01de00818040008280700073
:101ed00081b79f000d0007004f3ade000000400070
:101ee00004007000f0af9f000800070004024200e9
:101ef00085824a0006034b0087834b00dfff070003
:101f00000802be000a03be00000006002fb29700c0
:101f1000bfb297004fb39700dfb3970000000600f1
:101f2000881f780018002000881f780089ff0700ac
:101f30008f87e9004f04780000000600801feb0047
:101f400084ff07008f87e90000000600889fbe001d
:101f50008a9fbe00e00f5000e08f5800e00f59004c
:101f6000e08f59000c003d006044b8006055b80097
:101f70000000540081805c0002015d0083815d00ef
:101f8000180020001500070008003d001800070099
:101f90000004eb00050037000004eb000f00070011
:101fa00002003d001200070018002000dcff0700bf
:101fb0000800e000060032006022b8006033b8007c
:101fc0000000520081805a0002015b0083815b00a7
:101fd0004f05be004f04be0000000600e00f520097
:101fe000e08f5a00e00f5b00e08f5b00000006000e
:101ff0006044b8006055b8000402540085825c005b
:1020000006035d0087835d0000000600889fbe0018
:102010008a9fbe008c1f7800e00f5000e08f5800b0
:10202000e00f5900e08f59000d003d006044b800fa
:102030006055b8000000540081805c0002015d0022
:1020400083815d001c0020000820e10009a8e10058
:102050000ab0e1000bb8e1000d003d0008003700b8
:102060000006eb00e00f5200e08f5a00e00f5b002b
:10207000e08f5b0006003d006044b8006055b8008a
:102080000402540085825c0006035d0087835d00c6
:10209000aaff07000c00e000060032006022b80032
:1020a0006033b8000000520081805a0002015b00da
:1020b00083815b004f0678004f05be004f04be00d1
:0420c0000000060016
:020000040000fa
:1020c400343500002c250000642c0000202500007d
:0820d400643b00000a0000005b
:020000040000fa
:1020dc000400fa00000f780011079800c1a1a900b4
:1020ec00010e8000f0f02f0000806000000e8800d0
:1020fc00010e800030ff2f0000806000000e880071
:10210c00010e8000c0ff2f0000806000000e8800d0
:10211c0000702000400e88001e0078000000e000d7
:10212c0001003d00d501a800000024001e00600045
:10213c000000e00001003200d521a80000002200c0
:10214c001e0060000000e00001003200d541a80034
:10215c00000021001e0060000000e00001003200c1
:10216c00d561a800008020001e0060000000e00087
:10217c0001003200d581a800004020001e00600044
:10218c000000e00001003200d5a1a8001e00900064
:10219c0009000700d621ef00d821ef00da21ef006b
:1021ac00ca41a900ca21a800ca01a900c1e1a8001e
:1021bc000080fa00000006000800fa0030079800c2
:1021cc000040eb00404798003e0090008000eb0080
:1021dc000001be0060532700c1252000ccf9070088
:1021ec000002be004e4090000080fb00000040004a
:1021fc00110020000008dd00cf80de000001be00d1
:10220c000400be007efa07000081eb008081eb0029
:10221c00021f4000039748004e4090000040e80029
:10222c0040479800f0ff2700010020001e01be006f
:10223c00800f5100818f5900030036004e409000f2
:10224c00e34f5000e0ff3600f0ff270001002000b4
:10225c001e01be00800f5100818f59000300360013
:10226c00f0ff270001002000008fbe004e409000c0
:10227c000040e900634060000080fb0063006000e8
:10228c004200dd00020e800031ff2f008100610052
:10229c0001007000000e88009e007800f0ff2700ff
:1022ac0000806000200e88000080fa00000006000c
:1022bc000600fa001007980021079800ae00900065
:1022cc0000712200808f5000020036000071220045
:1022dc0020079800200e80008000eb0000014000d9
:1022ec00818148002e0090008000eb00009ab9001c
:1022fc0004027800028bb9008602780005024200c5
:10230c000010b80001024200840078000271220023
:10231c00030020007ef90700000f78009e0090005b
:10232c0000002c00008060000000e0000200320081
:10233c009e007800b10e88009e00900000002300e3
:10234c00008060000000e000020032009e00780077
:10235c00c10e88009e00900000c02000008060002c
:10236c000000e000020032009e007800d10e8800d0
:10237c000080fa00000006000400fa001007980024
:10238c00f0002000000f7800120037001100200030
:10239c001e0078000008dd00800078001e00900010
:1023ac00008060000000e00009003200f100200015
:1023bc001e8050000080d100110020000008dd00bc
:1023cc0080007800400e800001007000400e8800f4
:1023dc001e8fe9001e007800e90f5000ebff3c0057
:1023ec00e0002000000f78001300370011002000df
:1023fc001e0078000008dd00800078001e009000b0
:10240c00008060000000e0000a003200e1002000c3
:10241c001e8050000080d10064004000110020009c
:10242c000008dd0080007800400e80000100700084
:10243c00400e88001e8fe9001e007800e90f500046
:10244c00eaff3c000080fa00000006000400fa00dd
:10245c0010079800f0002000000f780013003700e0
:10246c00110020001e0078000008dd0080007800bc
:10247c001e009000008060000000e0000a003200a6
:10248c00f10020001e8050000080d10011002000bf
:10249c000008dd000080ea0080007800400e80001b
:1024ac0000806000400e88001e8fe9001e0078003e
:1024bc00e90f5000eaff3c00e0002000000f78001c
:1024cc0014003700110020001e0078000008dd0009
:1024dc00800078001e009000008060000000e0008a
:1024ec000b003200e10020001e8050000080d10063
:1024fc0064004000110020000008dd000080ea00ac
:10250c0080007800400e800000806000400e880043
:10251c001e8fe9001e007800e90f5000e9ff3c0017
:10252c000080fa00000006000400fa00000f78009a
:10253c0011079800c1a5a900012e8000f0f02f0012
:10254c0000806000002e8800012e800030ff2f00dc
:10255c0000806000002e8800012e8000c0ff2f003c
:10256c0000806000002e880000702000402e880043
:10257c00002020001e0060000000e000010032007e
:10258c00d505a800001020001e0060000000e0002f
:10259c0001003200d525a8001e009000070007009e
:1025ac00d625ef00ca41a900ca21a800ca01a9007a
:1025bc00c1e5a8000080fa00000006000800fa003f
:1025cc00300798000040eb00404798003e00900018
:1025dc008000eb000001be0060532700c1252000e5
:1025ec00cbf807000002be004e4090000080fb00bc
:1025fc0000004000110020000008dd00cf80de004c
:10260c000001be000400be007df907000081eb0054
:10261c008081eb00021f4000039748004e40900061
:10262c000040e80040479800f0ff27000100200020
:10263c001e01be00800f5100818f5900030036002f
:10264c004e409000e34f5000e0ff3600f0ff2700b3
:10265c00010020001e01be00800f5100818f590027
:10266c0003003600f0ff270001002000008fbe00a1
:10267c004e4090000040e900634060000080fb0089
:10268c00630060004200dd00022e800031ff2f004d
:10269c008100610001007000002e88009e0078000f
:1026ac00f0ff270000806000202e88000080fa00d8
:1026bc00000006000600fa00100798002107980099
:1026cc00ae00900000712200808f50000200360096
:1026dc000071220020079800202e80008000eb0063
:1026ec0000014000818148002e0090008000eb002a
:1026fc00009ab90004027800028bb90086027800b7
:10270c00050242000010b80001024200840078006b
:10271c0002712200030020007df80700000f7800f2
:10272c009e00900000302000008060000000e0005f
:10273c00020032009e007800b12e88000080fa0062
:10274c00000006000200fa00000f780000202000b4
:10275c001e0060000000e00003003200402e8000ec
:10276c000000a000402e8800001020001e00600019
:10277c000000e00003003200402e80000040a0006a
:10278c00402e88000080fa00000006000200fa00cb
:10279c00000f7800002020001e0060000000e00008
:1027ac0004003200412e8000e0ff2f00008060000a
:1027bc00402e8800001020001e0060000000e00089
:1027cc0004003200412e8000f0fe2f0000806000db
:1027dc00402e88000080fa00000006000400fa0079
:1027ec00008fbe001e01be0060532700c1252000d3
:1027fc0003f907004c09dd004400de000000710005
:10280c00c408de00000078000000e90040118800d8
:10281c002002a9000111800090ff2f0000806000b1
:10282c000011880020a2a9002062a90001118000db
:10283c00f0cf2f00008060000011880021a2a900b9
:10284c0023a2a90023e2a80011118000f0f32f00ad
:10285c0000806000101188005105800080ff2f005f
:10286c00008060005000b3005005880041058000d6
:10287c00f0ff28008080600000002600010070003e
:10288c00400588008580a9008560a9009580a90075
:10289c009560a80021e2a8002342a800113a80000c
:1028ac00f00b200000816000600420007105200006
:1028bc00237420008049780081497800824978008f
:1028cc002135800000fe2f00008060005000b30016
:1028dc00203588002136800000fe2f00008060002b
:1028ec003000b30020368800103a800000017800d8
:1028fc000260a000600420007105200023742000f9
:10290c00804978008149780082497800401680001f
:10291c000050a000401688000080fa00000006005d
:10292c000000fa00000000003140800020408000d0
:10293c00808f5000fcff3a00480007000080fa002e
:10294c00000006000200fa00000f780004003700b7
:10295c001e007800104078001f0007001e0fe800d2
:10296c001e007800104078000004e000f8ff3a00e8
:10297c003a0007000080fa00000006000200fa008e
:10298c003140800020408000808f50000d003200cc
:10299c00304080002190200061407800004f78008a
:1029ac00304080000000e80030408800314080005a
:1029bc00a00f2000808f500004003a000628ef0082
:1029cc00020037000040eb00004f78001e407800fa
:1029dc000080fa00000006000200fa00004f7800a8
:1029ec00004080008000e80010408000808f500084
:1029fc000700320001408000900f2000808f5000b3
:102a0c0008003a00104080000000e00005003a0089
:102a1c0051168000f0ff2e000080600050168800d8
:102a2c000c00370000408000818020001e4178009f
:102a3c0082707800004080000000e80000408800b0
:102a4c0001408000a00f2000808f500001003a0050
:102a5c000028ef000080fa00000006000000fa00d9
:102a6c009580a8008580a8000080fa000000060070
:102a7c000400fa00100798000021ef001e009000df
:102a8c00ef0f500015003e000040eb00004f7800a7
:102a9c001e0090008000eb00625327000289b900f1
:102aac0002017800c32520000382b900840178005c
:102abc0003014100635327000300b80001014100ea
:102acc008200780002712200030020004cf80700fd
:102adc000000780010088800470037009e00900026
:102aec0030082000808f500015003e0010c0b3004d
:102afc00004f78001e0090008000eb0062ea280076
:102b0c000289b90002017800b30420000382b900e5
:102b1c00840178000301410063ea28000300b80037
:102b2c0001014100820078000271220003002000a4
:102b3c0033f8070000007800100888002e003700da
:102b4c009e00900010422000808f500014003e0028
:102b5c0020c0b300004f78001e0090008000eb00f6
:102b6c00421d27000289b900020178006902b900f0
:102b7c008401780003014100431d27000300b800c5
:102b8c000101410082007800027122000300200044
:102b9c001bf80700000078001008880016003700aa
:102bac009e009000a0082100808f500012003e0073
:102bbc0030c0b300004f78001e0090008000eb0086
:102bcc0052c725000289b900020178008001d000ab
:102bdc000301410053c725000300b8000101410067
:102bec0082007800027122000300200004f8070024
:102bfc0000007800100888008460a9001e80fb008b
:102c0c004400dd0000f0a000200888000080fa00dd
:102c1c00000006000000fa00000000002004800004
:102c2c00680060000000e000fcff32008460a90036
:102c3c000080fa00000006002600fa000000eb00fd
:102c4c00000f78000000eb003007980054000700dc
:102c5c00707020009e007800808f50000b003400b4
:102c6c00007d20009e007800808f500007003c0003
:102c7c0010002000c8000700200798000000eb009f
:102c8c00c5000700100798000e003700f07c2000ec
:102c9c009e007800808f50000a003400808920004c
:102cac009e007800808f500006003c000000eb0076
:102cbc00b90007001007980010002000b6000700ac
:102ccc00200798003e0090000000e80030079800b4
:102cdc00be00900080382100808f50000d003a001b
:102cec000000eb003007980068004700ae00900031
:102cfc00811f78009e009000811f7800210629001a
:102d0c00811f780014f80700e68757006800470019
:102d1c000cff07001e007800090007001e0fe800da
:102d2c0000fa20009e007800808f500002003a00cc
:102d3c000000eb00000f7800b6ff0700c4ff37005f
:102d4c000200fa00000f78001e007800017d2000c0
:102d5c00810f50000900320001fa2000810f500051
:102d6c000a0032000000e0000b003a00c1172000fe
:102d7c00000028004efd07000700370081252000c9
:102d8c00000028004afd0700030037000000eb009c
:102d9c00000f7800000000000080fa000000060020
:102dac000000fa0010002000ea00070020002000bc
:102dbc00e8000700bd000700100020002cff0700f2
:102dcc0000202c001100200084fe070021032000ad
:102ddc0000002800befc07000000280066fd07006c
:102dec0020032000f4fc07006109200000002800eb
:102dfc002ffd07000080fa00000006000800fa0012
:102e0c00889fbe008a9fbe00300798000000eb0030
:102e1c00000f7800010037001e0fe8001e0078003c
:102e2c00f00f500008003c001e00780080004000ad
:102e3c00c09f200000804000900078003e00900071
:102e4c00808f5000f4ff39001e0078000000e00075
:102e5c0002003a001e0fe800040037001e00780044
:102e6c00f10f500001003a001e0fe9001e00e900ae
:102e7c0080004000e0a1200000804000100078009d
:102e8c008000eb00d5f607000004be001e007800a1
:102e9c0080004000e0a120000080400090007800fd
:102eac001e00e90000014000e0a1200000004100ec
:102ebc0010007800008050008000eb00c7f607007f
:102ecc000005be001e00780080004000c09f20005e
:102edc0000804000900078001e00e90000014000d6
:102eec00c09f2000000041001000780000805000be
:102efc008000eb00b9f607000001be000a00be001e
:102f0c0041f607000005be001e00e90080004000ed
:102f1c00c09f20000080400010007800be00900090
:102f2c0000805000cf80de00a9f607000001be0033
:102f3c000a00be00fef607000001be000800be003d
:102f4c00d4f5070081f60700200798002e009000aa
:102f5c000000e00003003d000000eb0010079800ab
:102f6c0002003700ae009000110798001e00900080
:102f7c004f05be004f04be000080fa0000000600a2
:102f8c000200fa00000f78001e007800870007008e
:102f9c000080fa00000006000400fa0010079800f8
:102fac001e009000f6ff0700000f78001e0078004e
:0c2fbc0092ff07000080fa0000000600f1
:020000040000fa
:102fc800fc090000440000000200000030013c0041
:102fd800015201006101740001d10100f0013400c7
:102fe800023702005002690002880200b902e800b4
:102ff800020a030032037300032800003c0050005b
:10300800006400009600c80000fa00002c015e0071
:1030180001900100c201f40001580200bc02200026
:1030280003840300e803000008080000f40100001e
:103038000000000000080000080000000000000078
:10304800620a00001a00000002000000686a6c00b2
:10305800747a4c000000010000020000040008001f
:1030680000100000000020002b2d2300300000007d
:10307800400a000022000000020000003031320047
:10308800333435003637380039414200434445006f
:1030980046003000313233003435360037383900d5
:1030a80061626300646566000000000000000000c3
:020000040000fa
:1030b8000000fa00213a800000fe2f000080600026
:1030c800203a880090022000303a8800213a800097
:1030d800f0f32f0000806000203a880012002000e2
:1030e80080072000a109200033742000804978005f
:1030f8008149780082497800103a80000001780000
:103108000200a00060042000710520002374200044
:1031180080497800814978008249780000000000e1
:10312800113a800000002700808060000000210024
:10313800808f5000faff3a0000000000113a80002a
:1031480000022000008060000000e000fbff320069
:103158000080fa00000006000200fa00000f780064
:103168001e017800e3006100001680000100700075
:10317800001688001e0078004200de00ef006000a4
:103188004016800001007000401688001e80ea008a
:103198006019880090102000201988002223ef0071
:1031a800000e2800001988000080fa0000000600c0
:1031b8000200fa00000f78009e007800411988008c
:1031c8002023a80085a0a900000000002104800099
:1031d80000002200008060000000e000fbff3200d9
:0c31e800001880000080fa0000000600c3
:020000040000fa
:0200000401f009
:04000000ffff0000fe
:020000040000fa
:0200000401f009
:04000800ffff0000f6
:020000040000fa
:0200000401f009
:04000c0000000000f0
:020000040000fa
:0200000401f009
:0400100043000000a9
:020000040000fa
:0200000401f009
:040014005f00000089
:020000040000fa
:0200000401f009
:04001800f7000000ed
:020000040000fa
:0200000401f009
:04001c00dfff000002
:00000001FF
