:020000040000fa
:080000000002040000000000f2
:020000040000fa
:04000800920300005f
:020000040000fa
:04000c00920300005b
:020000040000fa
:040010009203000057
:020000040000fa
:040014009203000053
:020000040000fa
:04001800920300004f
:020000040000fa
:04001c00920300004b
:020000040000fa
:040020009203000047
:020000040000fa
:040024009203000043
:020000040000fa
:04002800fc020000d6
:020000040000fa
:04002c00920300003b
:020000040000fa
:040030009203000037
:020000040000fa
:04003400d0020000f6
:020000040000fa
:04003800920300002f
:020000040000fa
:04003c00920300002b
:020000040000fa
:040040009203000027
:020000040000fa
:0400440002030000b3
:020000040000fa
:04004800920300001f
:020000040000fa
:04004c00920300001b
:020000040000fa
:040050009203000017
:020000040000fa
:040054005e03000047
:020000040000fa
:040058003803000069
:020000040000fa
:04005c00920300000b
:020000040000fa
:040060009203000007
:020000040000fa
:040064009203000003
:020000040000fa
:0400680092030000ff
:020000040000fa
:04006c0092030000fb
:020000040000fa
:0400700092030000f7
:020000040000fa
:0400740092030000f3
:020000040000fa
:0400780092030000ef
:020000040000fa
:04007c0092030000eb
:020000040000fa
:0400800092030000e7
:020000040000fa
:0400840092030000e3
:020000040000fa
:0400880092030000df
:020000040000fa
:04008c0092030000db
:020000040000fa
:0400900092030000d7
:020000040000fa
:0400940092030000d3
:020000040000fa
:0400980092030000cf
:020000040000fa
:04009c0092030000cb
:020000040000fa
:0400a00092030000c7
:020000040000fa
:0400a40092030000c3
:020000040000fa
:0400a80092030000bf
:020000040000fa
:0400ac0092030000bb
:020000040000fa
:0400b00092030000b7
:020000040000fa
:0400b40092030000b3
:020000040000fa
:0400b80092030000af
:020000040000fa
:0400bc0092030000ab
:020000040000fa
:0400c00092030000a7
:020000040000fa
:0400c40092030000a3
:020000040000fa
:0400c800920300009f
:020000040000fa
:0400cc00920300009b
:020000040000fa
:0400d0009203000097
:020000040000fa
:0400d4009203000093
:020000040000fa
:0400d800920300008f
:020000040000fa
:0400dc00920300008b
:020000040000fa
:0400e0009203000087
:020000040000fa
:0400e4009203000083
:020000040000fa
:0400e800920300007f
:020000040000fa
:0400ec00920300007b
:020000040000fa
:0400f0009203000077
:020000040000fa
:0400f4009203000073
:020000040000fa
:0400f800920300006f
:020000040000fa
:0400fc00920300006b
:020000040000fa
:040100009203000066
:020000040000fa
:040104009203000062
:020000040000fa
:04010800920300005e
:020000040000fa
:04010c00920300005a
:020000040000fa
:040110009203000056
:020000040000fa
:040114009203000052
:020000040000fa
:04011800920300004e
:020000040000fa
:04011c00920300004a
:020000040000fa
:040120009203000046
:020000040000fa
:040124009203000042
:020000040000fa
:04012800920300003e
:020000040000fa
:04012c00920300003a
:020000040000fa
:040130009203000036
:020000040000fa
:040134009203000032
:020000040000fa
:04013800920300002e
:020000040000fa
:04013c00920300002a
:020000040000fa
:040140009203000026
:020000040000fa
:040144009203000022
:020000040000fa
:04014800920300001e
:020000040000fa
:04014c00920300001a
:020000040000fa
:040150009203000016
:020000040000fa
:040154009203000012
:020000040000fa
:04015800920300000e
:020000040000fa
:04015c00920300000a
:020000040000fa
:040160009203000006
:020000040000fa
:040164009203000002
:020000040000fa
:04020800920300005d
:020000040000fa
:04020c009203000059
:020000040000fa
:040210009203000055
:020000040000fa
:040214009203000051
:020000040000fa
:04021800920300004d
:020000040000fa
:04021c009203000049
:020000040000fa
:040220009203000045
:020000040000fa
:040224009203000041
:020000040000fa
:04022800920300003d
:020000040000fa
:04022c009203000039
:020000040000fa
:040230009203000035
:020000040000fa
:040234009203000031
:020000040000fa
:04023800920300002d
:020000040000fa
:04023c009203000029
:020000040000fa
:040240009203000025
:020000040000fa
:040244009203000021
:020000040000fa
:04024800920300001d
:020000040000fa
:04024c009203000019
:020000040000fa
:040250009203000015
:020000040000fa
:040254009203000011
:020000040000fa
:04025800920300000d
:020000040000fa
:04025c009203000009
:020000040000fa
:040260009203000005
:020000040000fa
:040264009203000001
:020000040000fa
:0402680092030000fd
:020000040000fa
:04026c0092030000f9
:020000040000fa
:0402700092030000f5
:020000040000fa
:0402740092030000f1
:020000040000fa
:0402780092030000ed
:020000040000fa
:04027c0092030000e9
:020000040000fa
:0402800092030000e5
:020000040000fa
:0402840092030000e1
:020000040000fa
:0402880092030000dd
:020000040000fa
:04028c0092030000d9
:020000040000fa
:0402900092030000d5
:020000040000fa
:0402940092030000d1
:020000040000fa
:0402980092030000cd
:020000040000fa
:04029c0092030000c9
:020000040000fa
:0402a00092030000c5
:020000040000fa
:0402a40092030000c1
:020000040000fa
:0402a80092030000bd
:020000040000fa
:0402ac0092030000b9
:020000040000fa
:0402b00092030000b5
:020000040000fa
:0402b40092030000b1
:020000040000fa
:0402b80092030000ad
:020000040000fa
:0402bc0092030000a9
:020000040000fa
:0402c00092030000a5
:020000040000fa
:0402c40092030000a1
:020000040000fa
:0402c800920300009d
:020000040000fa
:0402cc009203000099
:020000040000fa
:0402d0009203000095
:020000040000fa
:0402d4009203000091
:020000040000fa
:0402d800920300008d
:020000040000fa
:0402dc009203000089
:020000040000fa
:0402e0009203000085
:020000040000fa
:0402e4009203000081
:020000040000fa
:0402e800920300007d
:020000040000fa
:0402ec009203000079
:020000040000fa
:0402f0009203000075
:020000040000fa
:0402f4009203000071
:020000040000fa
:0402f800920300006d
:020000040000fa
:0402fc009203000069
:020000040000fa
:040300009203000064
:020000040000fa
:040304009203000060
:020000040000fa
:04030800920300005c
:020000040000fa
:04030c009203000058
:020000040000fa
:040310009203000054
:020000040000fa
:040314009203000050
:020000040000fa
:04031800920300004c
:020000040000fa
:04031c009203000048
:020000040000fa
:040320009203000044
:020000040000fa
:040324009203000040
:020000040000fa
:04032800920300003c
:020000040000fa
:04032c009203000038
:020000040000fa
:040330009203000034
:020000040000fa
:040334009203000030
:020000040000fa
:04033800920300002c
:020000040000fa
:04033c009203000028
:020000040000fa
:040340009203000024
:020000040000fa
:040344009203000020
:020000040000fa
:04034800920300001c
:020000040000fa
:04034c009203000018
:020000040000fa
:040350009203000014
:020000040000fa
:040354009203000010
:020000040000fa
:04035800920300000c
:020000040000fa
:04035c009203000008
:020000040000fa
:040360009203000004
:020000040000fa
:040364009203000000
:020000040000fa
:100400004f5321000e7f24000e01880000000000e1
:10041000000020000000e000020032000001200087
:100420002002880014000700020107000000e0001d
:1004300003003a00605e2200010020000200370045
:100440000000200001002000810f70000100320038
:1004500014000700000020000000e000020032004d
:100460000000020000000000622202000000000004
:100470000040da000000fe004440a900800a20008d
:100480000000e0000300320000002000a00188000e
:100490004440a800000006008a1f78008b1f7800e7
:1004a0000000060091018800800478000000eb0045
:1004b0001a003700e284440032a0b4009905ba0063
:1004c000e284440032a0b4009906ba00e2844400f9
:1004d00032a0b4000006eb00476fde00fd07b2005b
:1004e000636ce10003003a00ebff07000000eb0043
:1004f0000a003700606ce10004003a00005deb0088
:100500008b05e900fdff3e00040037006168e10053
:10051000010032000086eb000b00070019c7ba008b
:100520001905ba000e04e00003003a000a00e000da
:10053000e0ff3a0000000600fe07b2009e018800be
:100540008a047800f5ff3700395dba008b05e900b1
:100550000c003200295dba008b05e900080032006a
:100560000c00e00003003a00e284440032a0b40032
:10057000f5ff370019ddba008b05e900faff3a00f4
:100580008904e800e184440032a0b40000000600c1
:10059000580f040000000000fc20040000000000d0
:1005a0003600f800809fbe00829fbe00849fbe0080
:1005b000869fbe003400f80000002000a0018800e3
:1005c0008460a900a80707000000e00003003200d3
:1005d000e627020000000000000000003400f900df
:1005e0004f03be004f02be004f01be004f00be00d1
:1005f0003600f9000040060094e0a8008400a9003d
:10060000004006003600f800809fbe00829fbe00ba
:10061000849fbe00869fbe000200fa000000eb002f
:10062000f0bf9f008001eb000f81e9008000eb002c
:1006300070418000a20a07007fb89700e10f5000c8
:1006400003003a00e627020000000000000000005e
:1006500084e0a9000080fa004f03be004f02be00f4
:100660004f01be004f00be003600f90000400600fa
:10067000809fbe008580a900c04180003608e3004d
:100680000b00320081012100e14078008180fb00f5
:10069000211188000000e800c0418800a10f20005f
:1006a000810f500003003a003828ef0001003700a6
:1006b0009580a9004f00be0000400600809fbe004c
:1006c000829fbe008560a900d04180008000e800c4
:1006d000e2418000828f500005003200930f20001d
:1006e000830f500004003a000200e00002003a00cc
:1006f000cb82a900080037003311800022112100ad
:1007000003717800d1418800a00f2000808f500035
:1007100001003a003a28ef004f01be004f00be0032
:10072000004006000040da000000fe000a00fa0067
:10073000e20f500034003e0090998000e10f50001d
:1007400003003200e20f500011003a000c003700a5
:10075000032220000300e00001003a000040da001c
:100760002002e200020035002822ef0021e2a8006a
:100770002342ab000d003a002342a8000b003700d3
:10078000032320000300e00001003a000040da00eb
:100790003002e200020035003822ef0031e2a8000a
:1007a0003342ab0001003a003342a80082017800d6
:1007b0000b0037003102fb00e10f500004003a004b
:1007c0002322ab00feff3a0024118800030037000b
:1007d0003322ab00feff3a00a41188008301e90038
:1007e0000300e000f3ff3a00e10f500003003a007d
:1007f0002302ab00feff32000b0037003302ab00d8
:10080000feff32000800370033002000b3bf9f0016
:10081000c0bf9f00d1bf9f00e2bf9f006a8057000a
:10082000380507006fb99700020078000080fa00d1
:10083000000006000000050003f0a200889fbe0033
:100840008a9fbe008c1f78002a0107003101330007
:100850006450e1004f0032006420e1005200320099
:1008600003826c0007003b000905d0000306d0009e
:10087000820f54000c065d000200390002003200b5
:1008800089017800030678008582550004003d0048
:100890000003fd008103fd008502ea008b85420014
:1008a000840f720002003b0060001000e08018001e
:1008b0006011b8000005eb007a28e1000a00390059
:1008c00006007800c75ddd00f707b200878075007d
:1008d0002d003700828171000a01780061056000f7
:1008e0008180d1000080d3008502e900f9ff3b0040
:1008f000060440008784480002003b0060041400a6
:10090000e0841c000988a300070032008a8171007e
:1009100082817100610164008904d1000884d300e0
:100920008b05e800170037000978a30013003a0090
:100930000b00e000130034008b05e90008044400bc
:1009400089844c000a4474000978a3000d003a0021
:100950000b00e000070034008b05e90008044400a8
:1009600089844c0001003a000b0020000978a300a4
:10097000f7ff32000001eb000200370082817100b6
:100980000a017800a00007000cf0a70001f0a00009
:10099000e90037006420e10002003a00838f6c0018
:1009a000e90033000801be000200be00e20037008b
:1009b000889fbe008a9fbe008c1f7800cd00070074
:1009c000d400330003866c006450e1002e00320036
:1009d0006420e100330032006150e1002f0032005a
:1009e0006120e1003100320085855500eb07b00041
:1009f0000900200008042000050037000804440016
:100a000089844c000a0031000603430087834b00b1
:100a10000001530081815b00f8ff33000203be0038
:100a20000800a0000804440089844c00f6ff390047
:100a3000c639dd008301730001003200130020007d
:100a40008904d1000884d3000998a300050032006e
:100a50000800a7000300a0008904d1000884d30087
:100a60008b05e8008904d1000884d3000001eb0065
:100a70000281d2006400070001f0a1000cf0a70081
:100a800001f0a000ac0037006420e100ae003200ad
:100a90000801be000200be00f7ff37006120e10040
:100aa000a90032006000b800f3ff3700000020000a
:100ab00001f82700f0ff3700839f68000100e00085
:100ac00002003d0060001000e08018000300e0001c
:100ad00002003d0060011100e0811900d100070013
:100ae0004f00e00002003b0060001000e0801800b2
:100af0000000060014002000da003700f4ff2f0089
:100b0000d80037000001be00650007000470a70090
:100b100003f0a1006509b100160032000d00350098
:100b20006828e10006003500f0ff2f00f1ff2700e4
:100b30000300e00013003b00010028000000050056
:100b400000004000818048008502e900fcff3a0077
:100b500008003700f88f420002003c008000eb00e4
:100b6000000005008100d1000080d3008502e8006c
:100b7000fcff3a000300e00002003b0060001000b0
:100b8000e0801800000006000001be0044000700dd
:100b90000470a70003f0a10003f8a30013003a00bb
:100ba0006509b10010003200090035006928e10034
:100bb0000200350001002800000005000000400090
:100bc000818048008502e900fcff3a000000060031
:100bd000f88f4200050035008100d1000080d3006d
:100be0008502e800fcff3a00000006008000eb00f0
:100bf000000005004f89de0082017800b400370054
:100c00006011b800c20037008100200061805500eb
:100c10000b003d000b00200061fe2f000100e100f1
:100c20001d00340082817100610164008904d100db
:100c30000884d3000000e800faff3a0071002000a9
:100c400061006400030070000200600009003200cf
:100c500061044400e0844c000988a50005003200ce
:100c60008b05e8006808e10002003a008904d10021
:100c70000884d300f20f20000258e10005003d0077
:100c8000c75ddd00f907b2008980750008007800b3
:100c9000000006000bf827008b007800000005001c
:100ca000c70ade00f107b200f50fb20008003200fb
:100cb000e1cf4200020032000170a00024000500d4
:100cc000810f700001003200040805004400050097
:100cd000810f700002003a00140005008502e9004f
:100ce0000000400081c04800fcff3b000170a000f4
:100cf000240005000004be00e9ff07000003be0059
:100d00000405be000200be00e5ff0700844f750029
:100d1000000006000200be006450e100050036003d
:100d20006420e100020036000968a30001003a00d7
:100d30000800be000160a0004f0678004f05be000d
:100d40004f04be0000000600f0ff2f00f1ff270057
:100d5000f9ff3700889fbe008a9fbe008c1f780075
:100d6000e4ff0700ebff330003866c006450e100f2
:100d7000240032006420e100270032006150e100cd
:100d8000220032006120e100210032008b85420008
:100d9000eb07b1000134b800003ab8000804420083
:100da00089844a00013ab8000030b80088804000c9
:100db00009014a000400330000004000818048001f
:100dc000020149008b05e900c909dd0083017000bb
:100dd0000100320013002000c814de004814dd00ba
:100de0004709de001200b200c808de000884700067
:100df00085ff070001f0a1000cf0a70001f0a000a2
:100e0000cdff37006120e100cfff32000801be00b6
:100e10000200be00f7ff37006150e100fcff3a001e
:100e2000c9ff37006022b800060220000000d00091
:100e30008180d2000482d2008582d2000000a0000e
:100e40000202520083825a00030031000202420073
:100e500083824a000000a1000603e900f3ff3a0084
:100e600000000600889fbe008a9fbe00841f780095
:100e7000a0ff07004f00780011003300f0ff2f00a3
:100e8000838f6c0006003b00040565000a00a70084
:100e90000800370009f0a600100020000800370005
:100ea000820f5400838f5c00030039001000200083
:100eb00001003e000000200009f0a7000000ea0049
:100ec0004f05be004f04be000000e0000000060019
:100ed000881f7800030478000300e00007003d004d
:100ee00060001000e080180060011900e081190026
:100ef00002003b0001f02d00030037000400070052
:100f000008f0a70001f0a0004f04780000000600e0
:100f1000889fbe008a9fbe0000827000040271009c
:100f200004827100260032000004be000200be00f0
:100f30006011b8006b092000950220000182cf00eb
:100f40000a0039000541b1000082cf0007003900d6
:100f50000541b1000982cf00040039000541b1000c
:100f60000882cf00010039000541b100054252005e
:100f7000120032000a003b008281710061016400ae
:100f80008100d1000080d3008984d3000884d3007d
:100f90008b05e8000442e800f7ff3a00070037003d
:100fa0000804440089844c00000048008180480007
:100fb0008b05e9000442e900f9ff3a0012ff07003f
:100fc0004f05be004f04be000000060080017800ff
:100fd00002003700b15978000201e9000200e00088
:100fe000fcff3a00000006000c00fa00889fbe00db
:100ff00000047800f0ff2700d0bf9f008004eb00c2
:1010000099bf9f0088bf9f00a8bf9f00200c2000b1
:10101000b0bf9f0078815700cfb097007080570015
:10102000100007000fb89700094878008fb89700a4
:10103000088050004f04be000080fa000000060047
:10104000d0019000028151004240a9000300340009
:1010500010017800014978000208e80001007800da
:1010600000000600f6874700889fbe008a9fbe00ea
:101070008c9fbe008e1f780000057800a1b79f00ee
:10108000020778008004eb0090023700afb09700b1
:101090008100e800a1b79f0051c2b300814f50000a
:1010a00003003a00afb097000004eb0011003700d6
:1010b000ba0090000000fb000168a30007003200a6
:1010c00009017800800078000a007800dcff070042
:1010d0000000e00005003a007c0237008a0078003a
:1010e00086020700e10f4000780232008904e80020
:1010f000760237000100780031417800d3c2b30096
:10110000834f51000c00320007003c00edc151003c
:10111000834f51000a003200ebc14100834f510060
:101120000d003a000800370003c3b300834f51009d
:1011300009003a00060037000830a000edff370034
:101140000800a000ebff37000810a000e9ff3700ff
:101150000820a000e7ff37000818a30001003200b4
:101160000800a1000838a300010032000820a100f7
:101170008200fb000103b100e98f50000c003e002b
:10118000000178008000eb006a08b900b201fb00a2
:101190000303b10080804100020078009201fb004f
:1011a0000303b100e98f5100f7ff36000600370056
:1011b0008000eb00a3c2b300834f510002003a004d
:1011c000ce0078000000e8008005eb00e2c2b3002a
:1011d000904f110009003a0008e0a000644151005e
:1011e000d04f1100030032000001780001027800a6
:1011f00006003700ce0578000000e8000001780006
:10120000090037006a58b900808541000200780063
:10121000b201fb000303b100e98f5100f9ff360072
:1012200084007800f5ff370032407800a2b79f00b5
:10123000c3c6b300834f5000250032000f003c00ae
:1012400032c6b300824f50008800320004003c00d8
:101250000004e000220232006b4151000f00370011
:1012600042c6b300824f5000170032006541410072
:10127000824f500094003a001300370032c7b30089
:10128000824f50001b00320007003c0064415100b7
:10129000824f5000100032000241e800824f50009f
:1012a00089003a000f00370052c7b300824f500048
:1012b0008a00320063414100824f500082003a00b0
:1012c000e0df9f0009003700e0df9f008500370066
:1012d0000840a000d4ff3700e0df9f000860a000b6
:1012e00080003700e0df9f000850a0000870a000d9
:1012f0007c003700e0df9f004e0078000006780099
:101300000000e00001003a00ac2921000c01780047
:101310000000eb00010037000000e800e241780027
:101320000304e000fcff3a00800678000b00e000b8
:10133000030032008d8f5500010031008b067800cc
:101340008005eb008d8f5000010036008d85500028
:10135000680464002a003a00110037003a00900047
:101360000068a30007003200090178000102200094
:101370000a00780032ff07000000e00006003a0093
:10138000060037008a00780000022000db01070019
:10139000e10f4000010032008904e8008b05e900fc
:1013a0000b00e000edff3a008085eb0014003700f1
:1013b0003a0090000068a300090032000c00780099
:1013c000b000fb0000067800090178000a007800f0
:1013d0001bff07000000e00008003a00080037008b
:1013e0008c0078003100fb00010678008a0078004c
:1013f000c2010700e10f4000010032008904e8004b
:101400000d0078008006e9000000e000e8ff3a00e7
:101410000800e000ad013200110037003a009000f2
:101420000068a300070032000901780001022000d3
:101430000a00780002ff07000000e00006003a0002
:10144000060037008a00780000022000ab01070088
:10145000e10f4000010032008904e8008b05e9003b
:101460000b00e000edff3a00980137004e017800d4
:10147000cf91de00c81ade004818dd004812de00f9
:1014800004027000e4df9f000848a3000800320057
:101490000404e00006003200e14f42000400320084
:1014a000f4df9f0082e79f002d002000020037003c
:1014b000f2df9f001d002000e2fd2f000f01410020
:1014c0000206e80099ff3700e0df9f00ecfd2f00e7
:1014d0000f0646001d00200094ff3700e0df9f004c
:1014e000080cb30008017800020cb2007000640020
:1014f0000200e0000d003a000000e00002003200af
:101500004e06be00020037004e067800cfe6de0031
:10151000e00f5600e08f5e000a003d003800b30087
:1015200060061600e0861e00060037000000e0009e
:10153000020032004e06be00020037004e06780060
:101540008006eb000b00e00005003a008c85760079
:101550000bf0a7008b05ea008b05e900cf5dde00ec
:1015600088017800030cb200e3b79f00000420005c
:10157000808f51002300320003003c000300e00094
:10158000080032002d003700000820006fb29700dd
:10159000800f52000d003200000c2000800f52001e
:1015a00026003a00222a210010c0b3006401410045
:1015b000b20f5600a28f5e001f0039000040e80005
:1015c000ea4f5000f9ff3a001b00370010c0b3008b
:1015d0000201200003002000820f5600838f5e006e
:1015e00015003900441add00cc11de0083017200c1
:1015f0004411dd000040e800e84f5000f6ff3a00db
:101600000d00370010c0b30082002000030020004e
:10161000820f5600838f5e0007003900431add00f9
:10162000cd11de00830172004311dd000040e800af
:10163000eb4f5000f6ff3a00e0df9f006fd99700b4
:101640000200fb008b0f500002003d00ebdf9f000b
:1016500003003700808f550001003d0080057800b1
:101660000100e0000300320063006400010032006a
:101670008100e90008e8a300050032008b8f5000cc
:10168000020034008b805000010037008000eb0026
:10169000efd997000300fb000002eb00d4b79f00d6
:1016a000808f50000200340000805000d0b79f00af
:1016b0000828a30040003200610164000818a3005c
:1016c0000f0032003a0090000068a30006003200cc
:1016d000b10220000200e000010032008180e80039
:1016e000090178000d003700b00220000200e00080
:1016f000010032000080e8008a0078000e00370008
:101700000200e000100032003a0090000068a300e0
:101710000700320009017800010220000a00780069
:1017200047fe07000000e00006003a000600370010
:101730008a00780000022000f0000700e10f40005e
:10174000010032008904e8005fb097000000e0006b
:101750005a003200bcb79f00cdb79f0080067800ca
:101760003a0090000068a3000700320009017800e9
:10177000010320000a00780031fe07000000e000ad
:1017800006003a00060037008a00780000032000b7
:10179000da000700e10f4000010032008904e80090
:1017a0008d06e900eeff3a00ddb79f003fb69700d7
:1017b000cfb6970041003700dfb197000300e0008b
:1017c0001a0032000838a30018003a00bcb79f0086
:1017d000cdb79f00830678003a0090000068a30010
:1017e0000700320009017800010220000a00780099
:1017f00013fe07000000e00006003a000600370074
:101800008a00780000022000bc000700e10f4000c1
:10181000010032008904e8008d06e900eeff3a007d
:10182000ddb79f003fb69700cfb697006101640017
:101830000818a3000f0032003a0090000068a300cf
:1018400006003200b10220000200e0000100320078
:101850008180e800090178000d003700b002200007
:101860000200e000010032000080e8008a007800f9
:101870000e0037000200e000100032003a00900035
:101880000068a3000700320009017800010220006f
:101890000a007800eafd07000000e00006003a00b8
:1018a000060037008a00780000022000930007003d
:1018b000e10f4000010032008904e8000b03e90059
:1018c0006330b90000017800b2b79f004233dd00f9
:1018d000202a2100000343008e01780093b79f0067
:1018e00008077800060478005c0037008b05e900e3
:1018f000000420006fb29700800f520038003200c1
:1019000003003c000400e000080032003e00370005
:1019100000082000efb09700808f500020003200b8
:10192000000c2000808f500037003a000e48a300c2
:10193000100032001802be000401be000c00be0000
:10194000f4b79f0085bf9f0036fd0700e0df9f00d2
:101950000000fb00cf80de007fb297008fba9700b7
:101960000401be00e90007000006560081865e0003
:101970000700370018017800110009000286d8001e
:10198000a2002000110009000280d800e1df9f00c2
:101990006fd997000243b000e2df9f001a003700c2
:1019a000902821000e58a30001003200802721005a
:1019b000212a2100810054000c01be008100e900b1
:1019c000030033008301d1000281d300fbff370005
:1019d000ef006100e0c07800e1df9f000a003700ff
:1019e0000c00be00bfb197008301e9000300330083
:1019f0008100d1000080d300fbff3700674060000a
:101a00000043b000e0df9f00ba0090006fda97005b
:101a10000400fb000168a300070032000901780000
:101a2000800078000a00780085fd07000000e000d3
:101a300005003a00050037008a0078002f000700f3
:101a4000e10f4000010032008904e8003fb0970038
:101a500063005000b0b79f00640454000b00e00026
:101a6000a2ff3a000e0478001fb797000838a300c1
:101a700016003200dfb097000100e00013003400d0
:101a8000010478003a0090000068a30007003200cb
:101a900009017800010220000a00780068fd0700b3
:101aa0000000e00006003a00060037008a007800d7
:101ab0000002200011000700e10f40000100320089
:101ac0008904e8000804e900eeff3a002fb197000e
:101ad00012407800e0df9f000004e0006bfd3a0058
:101ae000090078004f0778004f06be004f05be0082
:101af0004f04be006f01b10000000600889fbe00c9
:101b000001047800b80090008084eb000118a30065
:101b10003a003200180190000198a30002003a0038
:101b20000200e00035003a000190a0003104980066
:101b300080047800f90fb2000200e00002003a00d1
:101b400028009000000c7800ea8f540005003a004d
:101b50000178a30003003a0088007800d00020003c
:101b6000e6ff070018009000d8009000810f500099
:101b70000b0032000000e800100498001800780004
:101b800009487800000ce80011c0b300c032210001
:101b900001487800ea8f540018003a000500370029
:101ba000880078000940780017000700800478005a
:101bb00012003700380090000088a3000f003200a8
:101bc00018019000a800900048009000d7fa070084
:101bd00098009000810f50000400320038009000ff
:101be0000003b300300498008084eb000000eb0099
:101bf0001004980028009000000c7800090078007c
:101c00004f04be00000006000200fa00889fbe00dc
:101c1000a0ff9f0001047800380090000068a30036
:101c200033003a00e200600005003a000003b30010
:101c300030049800110498000080eb002e0037005b
:101c4000d80490000900e00006003a0012002000cd
:101c5000e680570048009000b4fa07001904980085
:101c600023003700a80090000100e00008003a00bf
:101c7000f132210021049800010c7800210020009d
:101c800051049800110498000030a000300498001e
:101c900018019000a800900048009000a3fa0700e7
:101ca000280090008080eb0011049800aff89700a6
:101cb00001487800000ce8002ff89700ea4f500028
:101cc0000b003a00380090000088a30008003200a2
:101cd00018019000a80090004800900093fa0700b7
:101ce0000000eb0010049800a8009000010c7800a0
:101cf000aff897000100fb004f04be000080fa001f
:101d00000000060000c0da0000000600020ab90068
:101d1000001bb9000200b8008100420081004300ae
:041d200000000600b9
:020000040000fa
:101d2400280000003c000000500000006400000097
:101d340096000000c8000000fa0000002c0100001a
:101d44005e01000090010000c2010000f4010000e7
:101d540058020000bc0200002003000084030000bd
:101d6400e8030000300100003c01000052010000c3
:101d74006101000074010000d1010000f0010000c5
:101d84003402000037020000500200006902000023
:101d940088020000b9020000e80200000a03000003
:101da400320300007303000011110000222200001e
:101db40033330000444400005555000066660000bb
:101dc400777700008888000099990000aaaa00008b
:101dd400bbbb0000cccc0000dddd0000eeee00005b
:101de400cecd0000acab00000202000003030000f3
:101df40004040000050500000606000007070000b3
:101e0400080800000a09000010100000101100006a
:101e1400121200004c750000786500007320000069
:101e2400312000002c200000323a00002025000060
:101e3400642c000020250000642000004d61000097
:101e44006e6400006f3a000020250000643b00002f
:101e54000a000000417000006c430000747200002e
:101e64006c000000494400004c45000000000000e4
:020000040000fa
:101e740080007800e10190000000eb004225210081
:101e8400828f510008003a00c1089000822421008a
:101e9400828f50000400320001f0a7008100ea00a4
:101ea4000100e9004f00de000000060060908000a1
:101eb400e10f500004003600e62702000000000095
:101ec40000000000faff3700ffff37008040800069
:101ed4001000e00003003a003ea8ef0040a8ef0025
:101ee4000000060080408000400090004000900008
:101ef40010019000a0019000f24188000342880084
:101f040000000600889fbe000004be000040800060
:101f1400180098002900980020408000314080007b
:101f2400800f5400818f5c00050031000140800067
:101f3400704080008180e800780c07000b003700b7
:101f440001408000804080008180e800730c07001d
:101f5400f041800001428000800f5400818f5c00ba
:101f640002003100f8418800094288004f04be0095
:101f740000000600e4874700889fbe008a9fbe00d9
:101f84008c9fbe008e1f780080bf9f008104780064
:101f940002067800030778000405780085067800b7
:101fa4008605780040022000820c070000047800b7
:101fb4000080eb000800e000660032000b00e00047
:101fc4006a003a000c0046007a0c0700600c980086
:101fd4000000e00066003a0008007800900c07005a
:101fe4000080eb005b003700596878001904e000ba
:101ff40002003200818f5400fbff3a000040eb00e6
:10200400106498008a047800e40f5500010036003b
:1020140049002000590c98000886e8000c0078005c
:10202400310c07006e0044002f0c07005804980080
:10203400500020000100200009005000e0805800fa
:1020440070049800010c9800380c98000e01780078
:102054008fb897000b007800360b0700000c78004f
:102064000d00e00001003200880e78007d0b0700af
:102074001428ec000008e20019003a000840880027
:10208400a0408000e10f50001c003a008004eb00e7
:10209400cb2021006c48b90000804500080c0700e3
:1020a4008904e800e58f5400faff3a000026210075
:1020b400030c0700c0262100010c07008024210026
:1020c400ff0b070040252100fd0b0700002621001f
:1020d40080408800c0262100704088000700370037
:1020e4001608e20005003a00004080005008900005
:1020f400800f550001003900084088001828ec00c2
:10210400580890000a08e30001003100504088009c
:102114006c00b900c2202100000041008c0078004e
:10212400f40b0700520b0700100020001608e20011
:102134000800320000408000d00890001000200009
:10214400810f550003003600e6270200000000005e
:10215400000000004f0778004f06be004f05be0088
:102164004f04be004f00b100000006006b0c980045
:10217400e80d90000c06e9000c0646000c864500ac
:102184001c14980019407800605c98001904e00061
:102194009aff32007e004400e380440092ff37003f
:1021a400889fbe008a1f78000004be00e48f54009c
:1021b40001003600490020002a0b07000800e00057
:1021c40001003a000840800058089000890f500030
:1021d400350032000b0031000005eb0001408000a7
:1021e400888f50000d003200014080001a0020004a
:1021f400d1089000898f5000080036000005eb00dc
:102204000600370001408000088568000af0a70036
:102214000a05ea000a05e9004f55de00590c98004a
:102224007801900088099000e00f5100e08f590078
:10223400060035005200200003002000090151006f
:10224400e081590072049800030c98006c00b900f6
:10225400c220210000004100e8009000808f50005f
:102264000c003a008884e80009007800c00b0700dd
:10227400580890000a08e30001003100504088002b
:102284006c00b900c22021000000410089007800e0
:10229400980b0700e10f550003003a00e6270200ff
:1022a4000000000000000000f10a07004f0578005c
:1022b4004f04be0000000600889fbe0000047800a2
:1022c4000800e0001d00320000408000880f50002c
:1022d4001a003200e30a070008007800e4fe070051
:1022e400e10f500014003a008884e80009007800e7
:1022f4009f0b0700580890000a08e3000100310012
:10230400504088006c00b900c22021000000410048
:1023140089007800770b070000408000d8089000ff
:1023240050089000808f500003003900e627020017
:102334000000000000000000cd0a07004f04be00aa
:1023440000000600889fbe008a1f78000004780001
:1023540008007800c6fe07008004eb00e10f50007f
:102364001a003a000c08e20014003a000040800011
:1023740019002000d808900050089000808f500069
:10238400010031008004eb000885e8000a007800b1
:10239400770b0700580890000a08e3000100310099
:1023a400504088006c00b900c220210000004100a8
:1023b4008a0078004f0b070004003700ee00440049
:1023c400802421004b0b07008004eb0009007800f7
:1023d4004f0578004f04be00000006006033b800cb
:1023e4006022b8008001eb00d207200041f32800ee
:1023f40080f52000dffe0700e10f500005003a00e1
:1024040042a0a800b04088000428ef000628ef008e
:10241400750a07000000060042a0a8001628ef0075
:10242400620a37000c28ec0000000600889fbe00fa
:102434008c0a070028408000394080008c0a07007d
:102444000800be004f04be000000060022408000c9
:10245400334080000200be0000000600a04080005f
:1024640000000600889fbe008a9fbe008c9fbe00ad
:102474008e1f78000c08e2004a003a0020408000d9
:102484003140800061004000e08048002040880026
:10249400314088002c4080003d408000e00f560011
:1024a400e08f5e0006003a00804080000e08f800cd
:1024b4001008f900704088000828ec0083fe07002b
:1024c400f0418000014280000005eb00800f5600bf
:1024d400818f5e002b003900cb2021001e002000dc
:1024e400010037000e057800804080001000e000f5
:1024f40003003a003ea8ef0040a8ef002100370097
:10250400804080004000900040049000180090003b
:10251400a8009000800f5600818f5e0003003100f8
:10252400f041880001428800160037008884e800e2
:10253400090078000e0b0700480890000000e00036
:10254400020032006e004400090b07005808900096
:102554000a08e30001003100504088006c00b90013
:102564000080450089007800e20a070000408000ee
:10257400d808900050089000808f5000d9ff310097
:10258400d9ff370000408000500890006c00b9006b
:10259400c220210062007800e10f500004003e00d8
:1025a400040037001228ec000005eb00010037009e
:1025b4001a0020000208e200010032001a00200084
:1025c4000a0078004f0778004f06be004f05be0092
:1025d4004f04be0000000600889fbe008a9fbe0014
:1025e400200a07000c28ed000004eb000c08e200b0
:1025f40032003a001408e20018003a002f003700b5
:1026040080928000400490006e004400d80a0700c5
:102614008884e80009007800d50a0700580890006b
:102624000a08e30001003100504088006c00b90042
:102634000080450089007800ae0a07000040800051
:10264400d808900050089000808f50000500390091
:102654001000200010408800020037008a24210066
:10266400cb2021001a00e000e5ff3a001208e20046
:102674000a0032001208e2000800320018002000ac
:1026840078ff07000000e0000100320018408800d5
:102694001228ed001208e200f9ff3a001040800011
:1026a4000004eb00e10f500004003a00e6270200aa
:1026b400000000000000000018002000ec090700e2
:1026c400080078004f05be004f04be00000006005d
:1026d400889fbe008a9fbe000004be00e00f500029
:1026e400e08f58000b0032004eff07002a408000a4
:1026f4003b4080000088ec009d0a0700080045006c
:1027040089804d00fffd0700b3ff07000000e000d3
:1027140003003a00e6270200000000000000000069
:102724004f05be004f04be0000000600889fbe0097
:102734008a1f7800000578000204be0039ff0700f4
:1027440022408000334080001a00be00080440008c
:1027540089844800800f5100818f5900080031009e
:10276400880f5000898f580019003600088dbe006c
:10277400880f5100898f59000c0031000700370081
:10278400880f5000898f58000f003e00880f5100b9
:10279400898f59000c0039000d0037000088ec00c7
:1027a400730a07000800be00d6fd07008aff070071
:1027b4000000e00008003a00e627020000000000e4
:1027c4000000000004003700088dbe00f3ff37004e
:1027d400088dbe00f5ff37004f0578004f04be009a
:1027e400000006000c08e200030032001000200084
:1027f40010408800000006000228ef0050408000ce
:102804006c00b900c2202100620078000000e000e2
:1028140006003a000a28ed00504080006c00b90020
:10282400620078000000e000faff320052408000ad
:102834006c10b900800078008181e800c02021007c
:10284400e0817900a3019000010240001302980086
:10285400e480400000804000808f510004003a0072
:102864006c10b900e4202100a30190000332780029
:102874006c11b9000281e800c020210060007900d9
:10288400400090000040880000000600889fbe00c1
:1028940000047800730907000800e00001003a0012
:1028a400084080008884e80009007800300a0700a6
:1028b400480890000000e000020032006e0044006e
:1028c4002b0a07008900780040252100090a070027
:1028d4006709070000408000880f50000d003a008f
:1028e4001608e20004003200e6270200000000009f
:1028f400000000000c003700a09280001408e300e0
:1029040002003a000028ef0007003700b5ff070077
:10291400050037001608e2000300320051090700e1
:102924006afd0700520907004f04be0000000600bc
:10293400889fbe000204be0001408000ee8040007b
:10294400f60907000088ec00090a0700e10f4400bb
:10295400e08f4c0005003a00014080008180e800cf
:1029640040252100e30907000500370020408000ce
:1029740031408000080040008980480061fd070064
:102984004f04be0000000600889fbe000404be0081
:102994000140800003f0a000f20098008308980032
:1029a40001408000ee804000d20907000088ec005e
:1029b400ef090700e10f4400e08f4c0005003a00e6
:1029c400014080008180e80040252100c9090700fa
:1029d400050037002040800031408000080040009e
:1029e4008980480047fd07004f04be000000060030
:1029f400889fbe0040009000c00490006e84440094
:102a040008007800da0907000c08e2000d003a001b
:102a14000984e80008007800d509070059089000e7
:102a24000a08e30001003100504088006c00b9003e
:102a3400c22021000000410088007800ad09070091
:102a4400030037008800780080242100a9090700ca
:102a54000040800059099000d00890000000eb006d
:102a6400810f510002003600100020001040880041
:102a74004f04be0000000600889fbe000202be0094
:102a840005f0a0000488be0040049000b8090700c7
:102a94008884e80009007800b50907005808900008
:102aa4000a08e30001003100504088006c00b900be
:102ab400c220210000004100890078008d09070030
:102ac4000040800058099000d00890000000eb00fe
:102ad400810f5100020036001000200010408800d1
:102ae4004f04be0000000600414080000108780049
:102af4002240800033408000120098002300980098
:102b040000000600889fbe008a1f780080047800b9
:102b140001057800d308070022408000334080007c
:102b24001a00be000004eb00e10f4000e08f4800f3
:102b3400190032001902780045408000848f520049
:102b44000600320019029000a9029000180020002b
:102b5400840f5100858f59000f0031001902900035
:102b6400a902900004035100858359001800200035
:102b7400860f5000878f580007003600020152006c
:102b840083815a00001d4100019549000900780025
:102b9400d5ff07000004eb00b50807000800780023
:102ba4004f0578004f04be0000000600100020000e
:102bb4001040880000000600014080007100900071
:102bc400810890000240800003408000d3099000f7
:102bd400540020000500200003025200e0825a0045
:102be400740198000509980000000600889fbe0043
:102bf4000004780082047800281190000200e000ac
:102c0400220032000900e0000c003a002800900085
:102c1400edf80700a8009000281090000080400004
:102c24002004980098009000810f5000170039008c
:102c34001800780020049800140037003800900031
:102c4400e1f80700a81090008100ea003800900025
:102c54000100400030049800980f50000300310038
:102c6400180090008100400031049800e28f540065
:102c740006003a00081090000000e0000300320053
:102c8400081090000000e90000149800081090005b
:102c94000000e800001498000000eb004f04be00a0
:102ca4000000060081017800201190000200e0007d
:102cb4000b003200b0009000828040003100980088
:102cc40010029000848f50000200390090007800b8
:102cd40031009800b000900003007800baf80700b3
:102ce40000000600881f7800000478005d080700d3
:102cf40088109000181090000084680008f0a70065
:102d04000804ea000804e9004f44de0058080700fc
:102d1400080078004f04780000000600889fbe0079
:102d2400000478004f080700481090000000e000fd
:102d340014003400280890000000e00005003a0068
:102d440010003700280890000000e00002003a005c
:102d54000c003700f40444000900780024ff070045
:102d64000000e0000100320090ff070048109000ce
:102d74000000e90040149800481090000000e000b2
:102d8400f0ff3c000080eb00401498003808070076
:102d940034080700381090000000e00014003400ec
:102da400480090000000e00005003a0010003700e1
:102db400480090000000e00002003a000c003700d8
:102dc400e80444000900780009ff07000000e0005f
:102dd4000100320075ff0700381090000000e90080
:102de40030149800381090000000e000f0ff3c0020
:102df4000080eb00301498001d0807004f04be004b
:102e040000000600889fbe000004be0015080700ed
:102e14001800780018119000a8109000028ab900d8
:102e240084014000130498008001eb00031498000f
:102e3400200498000201e9000191b90082004000d9
:102e4400310498000080eb0030149800401498007e
:102e54000900e0000b003a00480090000000e00088
:102e64000c00320068004400e1fe0700e10f50004e
:102e740008003a00e62702000000000000000000fd
:102e840004003700680044008d0807007400440003
:102e94008b080700f6070700100020004f04be004f
:102ea40000000600889fbe008a1f78000004be0050
:102eb4000000eb000800e00016003200a002200031
:102ec400bc080700000578000000eb000a00e000e1
:102ed4001000320008c8b9000000e800b508070077
:102ee400000d78000000e00007003200181598007b
:102ef40029159800110020000a007800c1ff07007e
:102f04000a007800030037000a007800c4080700ac
:102f14000000eb004f0578004f04be0000000600df
:102f24000a00fa00889fbe008a9fbe008c1f7800aa
:102f34000106780092bf9f00a3bf9f00040578009c
:102f4400000478008004eb00e8054400c50707008e
:102f54008810900018109000808f500002003900f3
:102f6400e20f550017003a000a0178008c0078003f
:102f7400080078001dff0700a80890000100e00089
:102f8400080032007400440099fe0700e10f50006d
:102f940009003a00e62702000000000000000000db
:102fa400050037000000e00003003200e6270200bd
:102fb4000000000000000000ad0707001000200022
:102fc400390037001fb89700afb89700e00f5000e2
:102fd400e08f580003003a00a50707000000eb004b
:102fe400310037000900e00003003a007480570004
:102ff400bdfe0700190020009d07070009fd07001a
:103004009807070038109000e10f400002003a00d2
:103014000000eb003014980048109000e10f4000cd
:1030240002003a000000eb004014980090070700eb
:10303400ee80570074805700b2fe07000000e000e5
:1030440015003a000800780026ff07000000e000a1
:103054000d0032001fb99700afb997000b0078003c
:1030640033fe0700080078002cff07005afd070014
:103074000000e000b5ff3a00e6270200000000006f
:1030840000000000b1ff37000800780023ff0700ac
:1030940051fd0700adff3700080078001fff07004f
:1030a4004dfd07000000eb004f0678004f05be0001
:1030b4004f04be000080fa0000000600889fbe0096
:1030c4008204780000047800081190001810900021
:1030d400800f5100030039000000eb00e28f510023
:1030e4001e003a000301780008007800bffe0700c4
:1030f4000000e000040032000900e0000200320099
:1031040010002000800c780048109000e10f40006f
:103114000e003a00a8089000100020000100e00012
:103124000e0032007400440031fe07008000780075
:10313400100020000100e000080032000900e00057
:1031440006003200800c780004003700481090001c
:103154000000e80040149800100020004f04be0056
:10316400000006000a00fa00889fbe008a9fbe0085
:103174008c9fbe000106780082bf9f0093bf9f0012
:1031840084067800000478000005eb00f405440090
:1031940034070700081090000000e000220032000d
:1031a400b80490008c00780008007800bdfe070089
:1031b4000d00e0000e003a00081090000000e90045
:1031c40000149800480090000000e0001300320052
:1031d4006800440006fe0700e10f50000f003a00ab
:1031e400e627020000000000000000000b0037008a
:1031f40039049800280890000000e000070032001d
:1032040074004400fafd07000000e00003003200ef
:10321400e627020000000000000000001407070079
:10322400100020003a0037000fb897009fb89700ad
:10323400e00f5000e08f580003003a000c0707002d
:103244000000eb00320037000a00e00003003a00ff
:103254007680570024fe07001a00200004070700a8
:1032640070fc0700ff06070038109000e10f4000d3
:1032740002003a000000eb0030149800481090005f
:10328400e10f400002003a000000eb0040149800f7
:10329400f7060700f08057007680570019fe0700f4
:1032a4000000e00016003a00ee06070088149000c3
:1032b400ef0607000900e0000d003a000fb997007f
:1032c4009fb997000b00780099fd0700080078006b
:1032d40092fe0700c0fc07000000e000acff3a00cb
:1032e400e62702000000000000000000a8ff3700ed
:1032f4000800780089fe0700b7fc0700a4ff370028
:103304000800780085fe0700b3fc07000000eb000e
:103314004f06be004f05be004f04be000080fa00f9
:1033240000000600889fbe00820478000004780034
:10333400081190000000eb000200e0001a003200c7
:103344000800780057fe0700081090000000e9000c
:103354000014980038109000e10f40000e003a006d
:10336400c8009000100020000100e0000e003200b0
:10337400680044009efd07008000780010002000d3
:103384000100e000080032000900e00006003200fd
:10339400800c780004003700381090000000e8002a
:1033a40030149800100020004f04be0000000600f6
:1033b400889fbe0000047800081190000000eb0014
:1033c4000200e00005003200b80490000800780014
:1033d40034fe070039049800100020004f04be009a
:1033e40000000600881f7800000478009d0607008e
:1033f400081490009e060700080078004f04780027
:1034040000000600889fbe0080047800950607002f
:103414000910900019149000000454009406070049
:10342400080078004f04be00000006000010900061
:1034340000000600881f7800000478001800780057
:103444000000e00001003200750707000800780062
:10345400730707004f047800000006000010900076
:1034640000f0a7000000ea000000e9004f00de00c1
:10347400000006008010900010109000008068008a
:1034840000f0a7000000ea000000e9004f00de00a1
:1034940000000600889fbe008a9fbe008105780058
:1034a4000204be000005780042a0a8000a007800cb
:1034b4000cfe07000000e0000c003200e00f540096
:1034c400e08f5c0006003200680145000800be0081
:1034d4007c02070042a0a900c0ff2f00190037009a
:1034e40042a0a9000000eb001600370042a0a9008a
:1034f40042a0a8000a1190009a1090000000eb006e
:10350400810f51000e0031000001eb000a00be00e3
:10351400b6fd0700aa089000100020000100e0009a
:103524000700320074004500200307008000780083
:10353400b0ff2f000100e00001003a00100020005d
:1035440042a0a9004f05be004f04be0000000600c3
:10355400881f780000047800010278000200be0091
:1035640042a0a800081190000200e0000b003a00fd
:10357400e00f5000e08f5800050032007401440051
:103584005002070042a0a900c0ff2f00240037000a
:1035940042a0a9000000eb002100370042a0a900ce
:1035a40042a0a800881090000000eb000100e00099
:1035b4001a003200281190003800900002004000e8
:1035c4003004980098009000810f500002003900e8
:1035d4001800780030049800081090000000e900fa
:1035e40000149800b80090000400780076f60700f4
:1035f400c8009000100020000100e0000700320025
:1036040068004400e902070080007800b0ff2f0042
:103614000100e00001003a001000200042a0a900cf
:103624004f04780000000600889fbe0082047800e2
:10363400000478000811900018109000800f5100c9
:103644000f0031000001eb000800780067fd07005f
:103654000900e0000a003a00280890000000e00099
:103664000700320074004400d00207008004780090
:1036740009f0a7008904ea008904ea00cf4cde00bf
:10368400090078004f04be0000000600889fbe00b9
:10369400000478008101780082047800881090008a
:1036a4000000eb000100e0001c0032002811900033
:1036b4003800900002004000300498009800900008
:1036c400810f50000200390018007800300498007f
:1036d400081090000000e90000149800b800900061
:1036e4000300780038f60700100020001900e000fd
:1036f4000a003a00c80090000100e0000700320010
:1037040068004400a902070080007800100020002f
:103714000100e00001003200800c78004f04be007c
:10372400000006000400e0000e003a000200600001
:1037340083806000610ab800c021dd00020020001f
:103744006102b80004017100858171000281710079
:1037540002f0a7000201ea000201ea004f10de00b5
:10376400000006000203600083806000610ab80064
:10377400c020dd00000020006132b80004007000a9
:1037840085807000000169008181690002817100f7
:103794000200780000f0a7000000ea000000e90041
:1037a4004f00de0000000600881f780000012000a2
:1037b40080060700000478000800e00004003200de
:1037c400080078000018eb000018eb003c06070026
:1037d400080078004f04780000000600e6874700e0
:1037e400889fbe008a9fbe008c9fbe008e1f7800fb
:1037f4000204be000107780084067800f6b79f0033
:1038040087bf9f000005780006fb07009a05780033
:103814001a0690000d0278000801be000b00780023
:103824008c007800bfff07000000e0000d003200ac
:103834000e00e000220032000884ea008984ea00d5
:1038440008826500090066008000eb00c001dd000d
:10385400020020006120b800001d71000195710074
:10386400170037007fb097008fb89700e00f500023
:10387400e08f5800120032000200200003102000e4
:103884000e00e00001003a006011b8000d00e000f5
:103894000100320003a0a0000801710089817100b9
:1038a400640045007fb297008fba970036fc07008a
:1038b40049fb07000000e000070032000900370060
:1038c40045fb07008b0078000c00780001017800ac
:1038d4008001780026003700e6270200000000007f
:1038e40000000000b4fc07000006780081057800a1
:1038f4000b98a30017003a005a0507001a0678002f
:103904009a0590000d0278000801be000c007800b2
:103914008b00780083ff07000000e0000c003200f9
:103924000e00e0000a0032000884ea008984ea00fc
:1039340008026600098065008000eb00c001dd001c
:10394400020020006120b800001d71000195710083
:10395400470507000b80fb008000eb00c001dd0081
:10396400020020006160b8000001710081817100d3
:103974000200be004f0778004f06be004f05be0090
:103984004f04be006f00b10000000600889fbe0017
:103994008a9fbe008c1f7800000578000204be00d8
:1039a400300507009a0578001a0690000884ea009a
:1039b4008984ea0008826500090066008000eb0043
:1039c400c001dd00020020006120b800001d71006c
:1039d40001957100260507000b0078008c00780023
:1039e4004f0678004f05be004f04be0000000600dd
:1039f400100178009000900002007800000006009a
:103a0400e6874700889fbe008a9fbe008c9fbe0049
:103a14008e1f78000204be0000057800e806450009
:103a240080fa07006a0090001a1d74001a95740049
:103a34006011b800f2b79f0083bf9f00808f5600cb
:103a44004100320009f02f00fb0f20000c40200041
:103a5400010037000800780020049000100378006b
:103a640010029000890062000b0262008002eb00e9
:103a7400c021dd00020020006132b80004017100a1
:103a840085817100010266000f003a001a0390005c
:103a94001a076100030363008003eb00c032dd00fa
:103aa400040020006173b80006027200878272006d
:103ab4000482720004f0a7000402ea000402ea008f
:103ac4004f22de00100037001a0390001a0761002d
:103ad400030363008003eb00c032dd000400200018
:103ae4006173b800060272008782720004026900e2
:103af400858269000482720004f0a7000402ea00cf
:103b04000402e9004f22de000400e0000c00320051
:103b14000410200081006200060032007fb297008a
:103b24008fba97000202720083827200f4b79f007a
:103b340085bf9f001a01be000390a000cefb0700c2
:103b4400888f5600c3ff3a007fb097008fb8970064
:103b54000081ea008181ea001a0090001a026100e3
:103b6400030060008000eb00c001dd0002002000c3
:103b74006120b800001d71000195710096fa0700dc
:103b84001a0078009a0090004f0778004f06be0094
:103b94004f05be004f04be006f00b10000000600d8
:103ba4000800fa00889fbe008a9fbe008c1f780020
:103bb4000205be0094bf9f00a5bf9f00f6b79f00fb
:103bc40087bf9f000006780016fa07001c04be0099
:103bd4000a01be000c00780089ff07000804750084
:103be400898475009fb99700030264002fb8970079
:103bf400008164008001eb00c010dd0000002000a3
:103c04006121b80002007000838070001fb9970022
:103c1400afb99700820f5000838f58000c003a0010
:103c24000080ea008180ea001c0190001c02600010
:103c3400010061008000eb00c001dd0002002000f3
:103c44006120b800001e7100019671001400370055
:103c54007fb097008fb89700e00f5000e08f5800b6
:103c64000e00320002002000035020001fb897000d
:103c7400afb89700020170008381700064004600b1
:103c84007fb297008fba97003ffb070052fa0700f4
:103c94000000e00004003200060037001c04be00ef
:103ca4004dfa07002c003700e62702000000000050
:103cb40000000000c0fb0700000578000104780044
:103cc4000898a3001d003a00660407001c0578004c
:103cd4001c0490009fb8970001026500afb99700db
:103ce400030164008001eb00c010dd00000020002f
:103cf4006121b80002007000838070001fb9970032
:103d0400afb99700820f5000838f58000a003a0021
:103d14000080ea008180ea0000026500010064007e
:103d24008000eb00c001dd00020020006120b8002b
:103d3400001e7100019671004d0407000880fb000d
:103d44008000eb00c004dd00080020006150b800d2
:103d540000047400818474000800be004f067800db
:103d64004f05be004f04be000080fa0000000600ac
:103d7400889fbe008a1f780000057800a9f9070013
:103d84002a0090000000e000080032000800200033
:103d9400092020006a0090000801be0036fb0700dd
:103da4002a0090000000e000faff3a000a007800c0
:103db4001b05070008fa07004f0578004f04be00f2
:103dc400000006000eff3700f0fe3700889fbe009b
:103dd4008a9fbe008005780001057800820478007f
:103de40000022000f3040700000478000080eb00c8
:103df4000800e000300032001a08e2000f003a0028
:103e0400d8408800602d2100ad040700202e210039
:103e1400ab040700e02e2100a9040700a02f210015
:103e2400a7040700a02c2100a5040700e02e210010
:103e340050418800a02f2100604188000a00e00062
:103e4400010032001a0020000000eb00700c980002
:103e54005a0c9800690c9800880478008b1c780030
:103e640009007800a00407006e0044009e040700c7
:103e740058049800380c980020002000010020000d
:103e84000a055000e08558007a0498000b0c98004d
:103e9400580890001c08e30001003100e04088004d
:103ea4006c00b900622d21000000410089007800f7
:103eb40090040700100020004f05be004f04be0010
:103ec40000000600881f78008a9fbe000204780064
:103ed4003a4180004b4180000005450081854d003a
:103ee4001a88ec00a2040700d14080009a009800d0
:103ef400ab0098003241800043418000820f55009e
:103f0400838f5d00040031008180e80060418000ff
:103f140082040700030037008180e80050418000dc
:103f24007e0407000800e00004003200d140800055
:103f3400ee80400008007800780407004f05be00ba
:103f44004f04780000000600889fbe008a9fbe00d0
:103f5400509680000000e000150032006a2d210018
:103f6400ab2c210042a0a800909680004004900051
:103f74006e0044007e04070042a0a9008884e80083
:103f8400090078007a040700580890001c08e30030
:103f940001003100e04088006c00b90000004500d9
:103fa40089007800530407001b00e000edff3a008d
:103fb4001ef90700f2408000034180000200500017
:103fc400838058001041880021418800fafd2f00a9
:103fd4006b2d21003b0037003441800045418000b7
:103fe40061004200e0804a0030418800414188007d
:103ff40061025100e0825900144188002541880083
:10400400e00f5000e08f580004003a005241800055
:104014002c08f8002a08f900624188005241800007
:104024001200e00027003200420190004204900098
:1040340018019000a8019000800f5100818f590051
:104044000a0036001f003700400090004004900032
:1040540018019000a8019000304180004141800087
:10406400800f5100818f590016003e0042a0a80025
:104074008884e800090078003d040700480890009f
:104084000000e000020032006e0044003804070023
:1040940025042000950a6500580890001c08e300d8
:1040a40001003100e04088006c00b9000080450048
:1040b400890078000f040700504180001000e000e0
:1040c400e1ff3a001241800023418000e00f5100db
:1040d400e08f5900c0ff3a00304180004141800028
:1040e400f040880001418800e04080006c01b90084
:1040f400612d2100e10079000100e00010003a0088
:104104000000e000260032000001e9006c11b90053
:10411400612d21008280400005003700ec805000b2
:104124000000e00002003a00e04088001c00370074
:104134000000e9001100e000f8ff3200e0408800d0
:104144006c01b9008281e800612d2100e1817900d0
:10415400a301900002824000130298006401410010
:1041640081004100818f510004003a006c02b900c3
:10417400812d2100a301900083307a006c00b900e6
:104184000080e800612d210061007800400090006b
:10419400d0408800e008900010017800020001007f
:1041a4004f05be004f04be0000000600889fbe00fd
:1041b40040009000c00490006e8444000800780021
:1041c400eb03070088007800a02c2100c903070036
:1041d4001000200059099000d1408000d1089000bf
:1041e400810f5100010031000000eb004f04be00bc
:1041f40000000600cf05b000889fbe008a9fbe0065
:104204008c9fbe008e1f78000007eb006066b8002c
:104214000002eb00823e2000030020008000eb003f
:1042240070418000cffb0700e10f5000f8ff3a0017
:10423400000e20004220b700000000001000200003
:104244005f03070000004000804188000000eb008d
:104254005b03070090418800f1f12f002204200045
:104264001289600000000000d0b79f0080418000e8
:10427400c0b79f00dfb097008080500081bf9f00cf
:10428400010178006110b90059f207000004be0072
:10429400f226210033a82300adf20700f0b79f00f7
:1042a400e1b79f00800078006fb0970001017800ab
:1042b400800178000c0278008d00780004037800f7
:1042c400810378000600be005bf107000006be0013
:1042d4000c01be000c00be0057f107000005be0033
:1042e4000801be000800be0053f107000001be0033
:1042f4000a00be0050f10700800178000101780037
:10430400030478008204780040062000800f5700e0
:104314000f003a00889fbe002fb09700801f7800de
:10432400afb09700811f7800c2f02800821f780088
:10433400e0f82f000f0040002af30700e0f82f00f8
:104344000f0040000f020700ea8757000007eb0048
:1043540002002000832c24000800be00e6f10700c0
:104364000000e0000d003400ffb097006fb097002c
:1043740001017800800178008c0278000d02780039
:1043840005007800840078002af107000006be00ca
:1043940008002000892c2400100037006011b800a8
:1043a4000800be00d2f107000000e0000b003d0051
:1043b400ffb097006fb0970001017800800178008a
:1043c4008c0278000d0278000500780084007800e3
:1043d40018f107000006be006044b8000200200087
:1043e400832c24000800be0059f20700e5f1070001
:1043f4008000780000002800ad0007008fb8970007
:1044040064804000e80f500008003e003408ec00cf
:10441400a041880041062000810f500004003a00aa
:104424003428ef006066b800010037003428ef003c
:104434000e07e80076ff370011e1a9001021a9005a
:1044440010c1a900000320001021b7001061a900c9
:104454000621ef003001200060088800f0ff2800ea
:10446400a600b60000d0a0003005880084e0a900b2
:1044740094e0a80011e1a8000000060094e0a9005f
:104484000040fe0000000600300020008b030700ff
:104494006a03070021032000000028005c000700d5
:1044a40000002800a0000700200320001a000700d5
:1044b40000202c00110020004d010700deff370012
:1044c400f1ff070032c0b3008000eb0010002000b1
:1044d40074fa0700704188000000e0000400320014
:1044e4000002eb006011b8008000eb008cfa0700ba
:1044f4006033b8008002eb00140020008001eb0060
:1045040062092000c1f22800c00f220099f60700ba
:10451400b2f7070000000500000178008001eb00fd
:1045240060532700c125200062f107008001780054
:104534000101780003007800820078000002be00c8
:1045440061005200e0805a000041eb00f3ff2700b5
:10455400830f5000e08f58001d0036004e29dd0007
:104564004220de0000007100c228de00610050001d
:10457400e080580012c0b300f3ff2700830f5000ff
:10458400e08f5800120036004c29dd004420de0084
:1045940000007100c428de0061005000e080580073
:1045a40022c0b300f3ff2700830f5000e08f5800b0
:1045b400070036004a29dd004620de0000007100b5
:1045c400c628de0061005000e080580032c0b3000d
:1045d400630161004211dd0033ff2f00040e8000ef
:1045e4008481610083017100030e8800f2ff2700bb
:1045f400820f5000e08f580002003600f0ff2700c1
:104604000100200000f0a100200e88000000060038
:10461400c1a1a900f2f02f00031c2000930961003e
:1046240032ff2f00031c200093096100c2ff2f00fa
:10463400031c20009309610002702000420e8800d0
:104644000000e00001003d00d501a80000e8a3003f
:1046540001003200d521a80000d8a30001003200d7
:10466400d541a80000c8a30001003200d561a8000c
:1046740000b8a30001003200d581a80000a8a3005f
:1046840001003200d5a1a80001007800a2ff0700b4
:10469400d621ef00d821ef00da21ef00ca41a900aa
:1046a400ca21a800ca01a900c1e1a80000000600af
:1046b400881f780000047800220e80000071220018
:1046c400808f500001003600800078008001eb00ec
:1046d4000201410083814900019ab9000208b8002f
:1046e400810042000271220003002000f1f0070063
:1046f40001002c008100640001003200b00e88002b
:10470400010023008100640001003200c00e880013
:1047140001c020000104640001003200d00e8800b2
:104724004f04780000000600000278000400e00056
:1047340001003d00c801a80004d8a3000100320014
:10474400c821a80004b8a30001003200c841a80091
:10475400e1002000130020000119dd0004016100c4
:10476400060032006e8110000281d1006401410014
:104774000219dd0002007800c821b7008180e90039
:10478400e88f5000f4ff3a0000000600f10020001a
:10479400130020000119dd00000161000700320050
:1047a4006f8110000281d1000219dd000281ea004c
:1047b400440e800002016200420e88008180e900fc
:1047c400e98f5000f3ff3a00e100200013002000bd
:1047d4000119dd0000016100080032006e81100043
:1047e4000281d100640141000219dd000281ea0066
:1047f400440e800002016200420e88008180e900bc
:10480400e88f5000f2ff3a00000006000001780033
:104814008001eb0060532700c1252000a5f00700ac
:10482400800178000101780003007800820078009c
:104834000002be0061005200e0805a000041eb001b
:10484400f3ff2700830f5000e08f58001d0036004f
:104854004e29dd004220de0000007100c228de0087
:1048640061005000e080580012c0b300f3ff27003d
:10487400830f5000e08f5800120036004c29dd00f1
:104884004420de0000007100c428de0061005000f6
:10489400e080580022c0b300f3ff2700830f5000cc
:1048a400e08f5800070036004a29dd004620de006c
:1048b40000007100c628de0061005000e08058004e
:1048c40032c0b300630161004211dd0033ff2f00e9
:1048d400042e80008481610083017100032e88000e
:1048e400f2ff2700820f5000e08f580002003600cc
:1048f400f0ff27000100200000f0a100202e880016
:1049040000000600c1a5a900f2f02f00035c2000fe
:104914009309610032ff2f00035c200093096100ba
:10492400c2ff2f00035c2000930961000270200085
:10493400422e88000098a30001003200d505a8008b
:104944000088a30001003200d525a80001007800ea
:10495400aeff0700d625ef00ca41a900ca21a8006e
:10496400ca01a900c1e5a800000006000001780002
:10497400202e80000230b2000e00320002712200ac
:10498400828f500001003600820078006101b80077
:104994000201410083814900019ab9000208b8006c
:1049a40081004200027122000300200041f0070050
:1049b400b02e8800000006000098a3000100320019
:1049c400c805a8000088a30001003200c885a8001b
:1049d400000006000098a30001003200c805a900e9
:1049e4000088a30001003200c885a9000000060069
:1049f4000001be0060532700c125200008f1070014
:104a0400c409de004c0add004401de00020172002c
:104a14008200e900411188002002a90090ff2f00c4
:104a24002022b60020a2a9002062a900f0cf2f0006
:104a34002022b60021a2a90023a2a90023e2a800f3
:104a4400f0f32f002222b60080ff2f00aa00b60048
:104a54005000b30050058800f1ff28004005800095
:104a6400808060000000260001007000400588007e
:104a74008580a9008560a9009580a9009560a8009b
:104a840021e2a8002342a800f20b2000133a800080
:104a940003016100600420007105200023742000dc
:104aa40080497800814978008249780002fe2f000d
:104ab40024358000840161005300b300233588004d
:104ac40023368000030161003200b30022368800df
:104ad400123a80000260a00023742000804978000c
:104ae4008149780082497800c8a2a8000000060025
:104af400e04180008040eb003a08e3000800320007
:104b040021112100e14078000000e800e041880024
:104b1400a20f2000820f500001003a003c28ef0051
:104b24000140780000000600b14180000101e80066
:104b3400c3418000830f510005003200940f200010
:104b4400848f500004003a000300e00002003a00a1
:104b5400cb82a900000006008301210080f17800c7
:104b6400b2418800a00f2000800f510001003a00dc
:104b74003628ef00000006009580a8008580a80074
:104b840000000600881f78000004780018407800b0
:104b94000004e00004003200e3ff070058407800fe
:104ba4000004e000fcff3a00f3ff07004f04780024
:104bb40000000600d04180003c08e30001003a00f8
:084bc400edff3700ffff370091
:020000040000fa
:104bcc000c1200006c000000000000000008000047
:104bdc001a000000000000003e0800000400000065
:104bec0002000000ffffff00ff000000ca120000df
:104bfc003c000000000000001a0800001400000037
:104c0c000000000048080000d00700000000000071
:104c1c0042080000040000000000000046080000ec
:104c2c000200000002000000ef0000002e0800004f
:104c3c00080000000000000018100000f401000043
:104c4c000000000036080000080000000000000012
:104c5c0078120000520000000200000030313200d7
:104c6c00333435003637380039414200434445006f
:104c7c0046003000313233003435360037383900d5
:104c8c00616263006465660000286e00756c6c00e0
:104c9c002900000001000000000a00000000640070
:104cac0000000000e8030000001027000000a00036
:104cbc008601000040420f00008096009800000022
:104ccc00e1f5050000ca9a003b0000000613000045
:104cdc0026000000020000002d130000002d130020
:104cec0009000000000200002f130000002f130029
:104cfc000e02010000000000000000000000000097
:104d0c000602020000000000061300002c13000035
:104d1c00060000000000000032130000020000003a
:0c4d2c0002000000010000000000000078
:020000040000fa
:104d38003600fa00a3fc2f008381470064ed2800a9
:104d48001a000900b41978008001780081197800e8
:104d58008000eb00811978008119780082197800a9
:104d680082fc2f000f014100e003b00083007800af
:104d7800d2187800808f5000fdff3a0060032000b1
:104d88000300400021028000011878004103200040
:104d9800914078008180fb00011878000018eb0032
:104da8000080fa0000000600000006000421ef0061
:104db8000021ef007035210010088800f0ff28005e
:104dc800a400b60000c0a000200588008460a900e7
:104dd8009460a8000481a80004a1a90005e1a80026
:104de80000000600f1ff07000040800090077800ef
:104df8004f007800304288003400f9004400f90080
:104e08004000f9003e00f9003c00f9003a00f900c2
:104e18003800f9002c00f9002a00f9002800f900f0
:104e28002600f9002400f9002200f9003200f900f8
:104e38003600f9004f0778004f06be004f05be0048
:104e48004f04be004f03be004f02be004f01be001c
:104e58004f00be004200f9000000060010000500e7
:104e680042a0a8004628ec00000006004608ed0015
:104e78003042880001003a0042a0a9000000060064
:104e8800e6874700889fbe008a9fbe008c9fbe00b1
:104e98008e1f7800000678001800200000132000fc
:104ea800800f56000f00360040eb28000300370043
:104eb8000804e800f10f540004003200d00f160077
:104ec800fbff39000800e00003003200f10f540036
:104ed80004003a00020037001800200001003700e3
:104ee800080120000800e9000000400029e9280026
:104ef8006907780041eb28006100780080bf9f00b7
:104f08008006eb000e0078008d0078003aef07006d
:104f18000005be0008044400f8b79f0008017800a7
:104f2800690079000e0050008d00780032ef07000c
:104f38000004be0041eb28007fb1970061007900b2
:104f48008fb89700010050008d0078002aef070005
:104f58000001be000800be0093ee07000004be007a
:104f68000fb9970002005600cf80de001fef070040
:104f78000001be000800be0074ef07000001be007b
:104f88000a00be002bee0700dcee07008000780068
:104f98000000eb000100e00001003500010078008e
:104fa8004f0778004f06be004f05be004f04be00f5
:104fb8006f00b10000000600cf003700feff0700b9
:104fc800afff37004200f800801f78000002200081
:104fd80010028800811f7800829fbe00849fbe0057
:104fe800869fbe00889fbe008a9fbe008c9fbe0021
:104ff8008e1f78003600f8003200f8002200f80012
:105008002400f8002600f8002800f8002a00f8001c
:105018002c00f8003800f8003a00f8003c00f800ce
:105028003e00f8004000f8004400f8003400f800a2
:1050380030428000801f7800004080000f08780010
:10504800f413020000000000004080009007780080
:105058004f007800304288003400f9004400f9001d
:105068004000f9003e00f9003c00f9003a00f90060
:105078003800f9002c00f9002a00f9002800f9008e
:105088002600f9002400f9002200f9003200f90096
:105098003600f9004f0778004f06be004f05be00e6
:1050a8004f04be004f03be004f02be004f01be00ba
:1050b8004f00be004200f90000000600e400400076
:1050c800110098000081eb008081eb00220098001d
:1050d8003300980041009800510098000008eb0048
:1050e800000006008000eb00510098000000060058
:1050f80010019000a2009800b2019000b30098003f
:10510800b2019000a101980031019800d0009800e8
:105118001008e800000006001102be00e10f42007e
:10512800e08f4a0002003a00d001900007003700e3
:10513800e40140000100370082017800230190005b
:10514800b20f5200a28f5a00fbff310023019000da
:10515800a200980031019800b3009800a1019800be
:10516800d00098001008e80000000600d000900069
:1051780020019000b00190003301980030019000a8
:10518800a00190002301980011019000800f5100a8
:1051980002003a0032019000920098000001eb00f2
:1051a800520098001100e90080087800000006000d
:1051b800889fbe00000478000808a300020032009f
:1051c8000800a1000884e80095f407004408e200fc
:1051d80003003a00a08420000000a10020428800bb
:1051e80010428000000444008004eb00d17c2000c1
:1051f800810f540005003e00880f50000300310065
:105208004408b4008004780018428800f1f40700cc
:10521800090078004f04be000000060000000600e8
:105228004228ef000000060010428000e17c2000c8
:10523800008050000000060000fe2f004427b60042
:1052480090022000303a8800f0f32f004427b6007f
:10525800a1092000120020008007200033742000dc
:10526800804978008149780082497800123a8000a4
:105278000200a000710520006004200023742000b3
:105288008049780081497800824978000200270027
:1052980001002100133a800003006100810f5000d3
:1052a800fcff3a0001022000123a800002806000f0
:1052b800fdff32000000060000017800e3006100f5
:1052c80001007800c022b700c210de00ef80600045
:1052d80001007800c822b7000280ea00601988003f
:1052e80090102000201988002223ef00000e2800cb
:1052f8000019880000000600401988002023a80033
:1053080085a0a9000100220022048000028060001c
:0c531800fdff32000018800000000600bd
:020000040000fa
:0200000401f009
:04000000ffff0000fe
:020000040000fa
:0200000401f009
:04000800ffff0000f6
:020000040000fa
:0200000401f009
:04000c0000000000f0
:020000040000fa
:0200000401f009
:0400100043000000a9
:020000040000fa
:0200000401f009
:040014005f00000089
:020000040000fa
:0200000401f009
:04001800f7000000ed
:020000040000fa
:0200000401f009
:04001c00dfff000002
:00000001FF
