:020000040000fa
:080000000002040000000000f2
:020000040000fa
:04000800b80200003a
:020000040000fa
:04000c00b802000036
:020000040000fa
:04001000b802000032
:020000040000fa
:04001400b80200002e
:020000040000fa
:04001800b80200002a
:020000040000fa
:04001c00b802000026
:020000040000fa
:04002000b802000022
:020000040000fa
:04002400b80200001e
:020000040000fa
:04002800b80200001a
:020000040000fa
:04002c00b802000016
:020000040000fa
:04003000b802000012
:020000040000fa
:040034007c24000028
:020000040000fa
:04003800b80200000a
:020000040000fa
:04003c00b802000006
:020000040000fa
:04004000b802000002
:020000040000fa
:040044004422000052
:020000040000fa
:04004800b8020000fa
:020000040000fa
:04004c00b8020000f6
:020000040000fa
:04005000b8020000f2
:020000040000fa
:040054003221000055
:020000040000fa
:04005800682100001b
:020000040000fa
:04005c00b8020000e6
:020000040000fa
:04006000b8020000e2
:020000040000fa
:04006400b8020000de
:020000040000fa
:04006800b8020000da
:020000040000fa
:04006c00b8020000d6
:020000040000fa
:04007000b8020000d2
:020000040000fa
:04007400b8020000ce
:020000040000fa
:04007800b8020000ca
:020000040000fa
:04007c00b8020000c6
:020000040000fa
:04008000b8020000c2
:020000040000fa
:04008400b8020000be
:020000040000fa
:04008800b8020000ba
:020000040000fa
:04008c00b8020000b6
:020000040000fa
:04009000b8020000b2
:020000040000fa
:04009400b8020000ae
:020000040000fa
:04009800b8020000aa
:020000040000fa
:04009c00b8020000a6
:020000040000fa
:0400a000b8020000a2
:020000040000fa
:0400a400b80200009e
:020000040000fa
:0400a800b80200009a
:020000040000fa
:0400ac00b802000096
:020000040000fa
:0400b000b802000092
:020000040000fa
:0400b400b80200008e
:020000040000fa
:0400b800b80200008a
:020000040000fa
:0400bc00b802000086
:020000040000fa
:0400c000b802000082
:020000040000fa
:0400c400b80200007e
:020000040000fa
:0400c800b80200007a
:020000040000fa
:0400cc00b802000076
:020000040000fa
:0400d000b802000072
:020000040000fa
:0400d400b80200006e
:020000040000fa
:0400d800b80200006a
:020000040000fa
:0400dc00b802000066
:020000040000fa
:0400e000b802000062
:020000040000fa
:0400e400b80200005e
:020000040000fa
:0400e800b80200005a
:020000040000fa
:0400ec00b802000056
:020000040000fa
:0400f000b802000052
:020000040000fa
:0400f400b80200004e
:020000040000fa
:0400f800b80200004a
:020000040000fa
:0400fc00b802000046
:020000040000fa
:04010000b802000041
:020000040000fa
:04010400b80200003d
:020000040000fa
:04010800b802000039
:020000040000fa
:04010c00b802000035
:020000040000fa
:04011000b802000031
:020000040000fa
:04011400b80200002d
:020000040000fa
:04011800b802000029
:020000040000fa
:04011c00b802000025
:020000040000fa
:04012000b802000021
:020000040000fa
:04012400b80200001d
:020000040000fa
:04012800b802000019
:020000040000fa
:04012c00b802000015
:020000040000fa
:04013000b802000011
:020000040000fa
:04013400b80200000d
:020000040000fa
:04013800b802000009
:020000040000fa
:04013c00b802000005
:020000040000fa
:04014000b802000001
:020000040000fa
:04014400b8020000fd
:020000040000fa
:04014800b8020000f9
:020000040000fa
:04014c00b8020000f5
:020000040000fa
:04015000b8020000f1
:020000040000fa
:04015400b8020000ed
:020000040000fa
:04015800b8020000e9
:020000040000fa
:04015c00b8020000e5
:020000040000fa
:04016000b8020000e1
:020000040000fa
:04016400b8020000dd
:020000040000fa
:04020800b802000038
:020000040000fa
:04020c00b802000034
:020000040000fa
:04021000b802000030
:020000040000fa
:04021400b80200002c
:020000040000fa
:04021800b802000028
:020000040000fa
:04021c00b802000024
:020000040000fa
:04022000b802000020
:020000040000fa
:04022400b80200001c
:020000040000fa
:04022800b802000018
:020000040000fa
:04022c00b802000014
:020000040000fa
:04023000b802000010
:020000040000fa
:04023400b80200000c
:020000040000fa
:04023800b802000008
:020000040000fa
:04023c00b802000004
:020000040000fa
:04024000b802000000
:020000040000fa
:04024400b8020000fc
:020000040000fa
:04024800b8020000f8
:020000040000fa
:04024c00b8020000f4
:020000040000fa
:04025000b8020000f0
:020000040000fa
:04025400b8020000ec
:020000040000fa
:04025800b8020000e8
:020000040000fa
:04025c00b8020000e4
:020000040000fa
:04026000b8020000e0
:020000040000fa
:04026400b8020000dc
:020000040000fa
:04026800b8020000d8
:020000040000fa
:04026c00b8020000d4
:020000040000fa
:04027000b8020000d0
:020000040000fa
:04027400b8020000cc
:020000040000fa
:04027800b8020000c8
:020000040000fa
:04027c00b8020000c4
:020000040000fa
:04028000b8020000c0
:020000040000fa
:04028400b8020000bc
:020000040000fa
:04028800b8020000b8
:020000040000fa
:04028c00b8020000b4
:020000040000fa
:04029000b8020000b0
:020000040000fa
:04029400b8020000ac
:020000040000fa
:04029800b8020000a8
:020000040000fa
:04029c00b8020000a4
:020000040000fa
:0402a000b8020000a0
:020000040000fa
:0402a400b80200009c
:020000040000fa
:0402a800b802000098
:020000040000fa
:0402ac00b802000094
:020000040000fa
:0402b000b802000090
:020000040000fa
:0402b400b80200008c
:020000040000fa
:0402b800b802000088
:020000040000fa
:0402bc00b802000084
:020000040000fa
:0402c000b802000080
:020000040000fa
:0402c400b80200007c
:020000040000fa
:0402c800b802000078
:020000040000fa
:0402cc00b802000074
:020000040000fa
:0402d000b802000070
:020000040000fa
:0402d400b80200006c
:020000040000fa
:0402d800b802000068
:020000040000fa
:0402dc00b802000064
:020000040000fa
:0402e000b802000060
:020000040000fa
:0402e400b80200005c
:020000040000fa
:0402e800b802000058
:020000040000fa
:0402ec00b802000054
:020000040000fa
:0402f000b802000050
:020000040000fa
:0402f400b80200004c
:020000040000fa
:0402f800b802000048
:020000040000fa
:0402fc00b802000044
:020000040000fa
:04030000b80200003f
:020000040000fa
:04030400b80200003b
:020000040000fa
:04030800b802000037
:020000040000fa
:04030c00b802000033
:020000040000fa
:04031000b80200002f
:020000040000fa
:04031400b80200002b
:020000040000fa
:04031800b802000027
:020000040000fa
:04031c00b802000023
:020000040000fa
:04032000b80200001f
:020000040000fa
:04032400b80200001b
:020000040000fa
:04032800b802000017
:020000040000fa
:04032c00b802000013
:020000040000fa
:04033000b80200000f
:020000040000fa
:04033400b80200000b
:020000040000fa
:04033800b802000007
:020000040000fa
:04033c00b802000003
:020000040000fa
:04034000b8020000ff
:020000040000fa
:04034400b8020000fb
:020000040000fa
:04034800b8020000f7
:020000040000fa
:04034c00b8020000f3
:020000040000fa
:04035000b8020000ef
:020000040000fa
:04035400b8020000eb
:020000040000fa
:04035800b8020000e7
:020000040000fa
:04035c00b8020000e3
:020000040000fa
:04036000b8020000df
:020000040000fa
:04036400b8020000db
:020000040000fa
:10040000ef4121000e7f24000e0188000000000053
:10041000000020000000e000020032000001200087
:10042000200288000c000700a02b22000100200001
:1004300011000700000020000000e0000200320070
:100440000000020000000000f6250200000000008d
:100450000040da000000fe004440a9002007200010
:100460000000e0000300320000002000a00188002e
:100470004440a80000000600910188008000780038
:100480000000eb0015003700e280400032a0b4000d
:100490009101ba00e280400032a0b4009102ba009b
:1004a000e280400032a0b4000002eb00472bde00e7
:1004b000f507b200602ce10004003a000059eb009f
:1004c0008301e900fdff3e00040037006128e100e0
:1004d000010032000082eb000b00070011c3ba00dc
:1004e0001101ba000604e00003003a000200e00037
:1004f000e5ff3a0000000600f607b200960188000a
:1005000082007800f5ff37003159ba008301e90015
:100510000c0032002159ba008301e90008003200c2
:100520000400e00003003a00e280400032a0b40082
:10053000f5ff370011d9ba008301e900faff3a004c
:100540008100e800e180400032a0b4000000060015
:10055000760e0400000000009a2104000000000054
:10056000ac250400000000002c2004000000000066
:100570000040da000000fe000a00fa00e20f50001e
:1005800020003e00e0908000e10f500006003200a5
:100590008023200045232000232320000423200063
:1005a0000000e00004003a008022200045222000e4
:1005b00023222000042220000600280014036300e8
:1005c00003003a000608780000002800140a7000b2
:1005d00013a8a30001003a0013a0a00002007800b5
:1005e000050037001388a300feff32003102fb0034
:1005f000840a78000000e9000000e000f9ff3a00fa
:100600000800370033002000b3bf9f00c0bf9f0029
:10061000d1bf9f00e2bf9f006a8057001604070009
:100620006fb99700020078000080fa000000060011
:100630006022b800060220000000d0008180d200b5
:100640000482d2008582d2000000a0000202520083
:1006500083825a00030031000202420083824a0072
:100660000000a1000603e900f3ff3a0000000600c5
:100670008001780002003700b15978000201e900da
:100680000200e000fcff3a00000006000c00fa0047
:10069000889fbe0000047800f0ff2700d0bf9f00b5
:1006a0008004eb0099bf9f0088bf9f00a8bf9f00f8
:1006b000200c2000b0bf9f0078815700cfb097007a
:1006c00070805700100007000fb8970009487800a5
:1006d0008fb89700088050004f04be000080fa00d9
:1006e00000000600d0019000028151004240a900a4
:1006f0000300340010017800014978000208e80086
:1007000001007800000006002f02b000889fbe00a4
:100710008a9fbe008c9fbe008e1f780080067800e6
:10072000d1af9f0092b79f000007eb004403370052
:10073000dfa897008100e800d1af9f0051c2b3004d
:10074000814f500003003a005fa897000006eb00bd
:1007500011003700bd0090000000fb000168a300fd
:10076000070032000e017800800078000d0078004c
:10077000dcff07000000e00005003a00300337000e
:100780008d0078003a030700e10f40002c0332008f
:100790000e07e8002a033700800078003041780017
:1007a000d3c2b300834f51000c00320007003c005d
:1007b000edc15100834f51000a003200ebc14100ee
:1007c000834f51000d003a000800370003c3b30007
:1007d000834f510009003a00060037000c30a0009a
:1007e000edff37000c00a000ebff37000c10a0005d
:1007f000e9ff37000c20a000e7ff37000c18a3002a
:10080000010032000c00a1000c38a30001003200ee
:100810000c20a1000200fb000003b100e90f500012
:100820000c003e00010178000000eb006a00b900f6
:10083000b201fb000303b100008041008200780098
:100840009201fb000303b100e98f5100f7ff36006e
:10085000080037000000eb00a3c2b300834f510033
:1008600004003a001fb197004200780092b79f0041
:100870008100e8008001eb00a3b79f00e2c2b30053
:10088000914f11000c003a000ce0a00064415100af
:10089000d14f1100030032000101780003027800fb
:1008a000090037001fb29700c402780094b79f0078
:1008b000a5b79f008100e80001017800090037001a
:1008c0006a22b9000482410082007800b201fb0074
:1008d0000303b100e98f5100f9ff3600a4b79f0070
:1008e000f5ff3700b2407800d2af9f00c3c6b30017
:1008f00083cf5000250032000f003c0032c6b30009
:1009000082cf5000a000320004003c000104e0004f
:10091000d00232006b4151000f00370042c6b300d5
:1009200082cf5000170032006541410082cf500055
:10093000b3003a001300370032c7b30082cf500033
:100940001f00320007003c006441510082cf50007c
:10095000140032000241e80082cf5000a8003a00a3
:100960001300370052c7b30082cf5000ab003200f3
:100970006341410082cf5000a1003a00a1d79f00ff
:100980000d003700a1d79f00a6003700010120000d
:100990000c48a30001003200010028000c86700002
:1009a000d0ff3700a1d79f000c60a0009d0037004a
:1009b000a1d79f000c50a0000c70a0009900370038
:1009c000a1d79f009fb39700c700780097b79f00fb
:1009d000b1b79f000100e00002003a008903210046
:1009e000b9b79f003fb197008000eb0001003700ce
:1009f0008100e800e2c178000304e000fcff3a0057
:100a0000c1b79f002fb597000a00e0000500320033
:100a1000cfb597008b0f5500020031008a00780097
:100a2000c1b79f00cfb097000004eb00810f5000ca
:100a30000100360001045000680666002b003a00f1
:100a4000110037003d0090000068a300070032004d
:100a50000e017800010220000d00780021ff070040
:100a60000000e00006003a00060037008d00780024
:100a7000000220007e020700e10f4000010032006a
:100a80000e07e8000804e9000800e000edff3a0066
:100a90000084eb00150037003d0090000068a300c3
:100aa0000900320008007800b000fb000004780064
:100ab0000e0178000d0078000aff07000000e0003a
:100ac00008003a000f003700880078003100fb0072
:100ad000010478008d00780065020700e10f4000f6
:100ae000080032000e07e80006003700acb79f0090
:100af000080678003fb49700cfb497005fb5970021
:100b0000efb59700090078008004e9000000e000dc
:100b1000e1ff3a00b8b79f00c9b79f00dab79f005e
:100b2000ebb79f000c0478002fb697000c00e00094
:100b300043023200110037003d0090000068a3001e
:100b4000070032000e017800010220000d0078003d
:100b5000e4fe07000000e00006003a00060037004f
:100b60008d0078000002200041020700e10f4000e4
:100b7000010032000e07e8000804e9000800e00068
:100b8000edff3a002e0237009fb29700450478002f
:100b900095b79f00cfc4de00614db9000802be00ca
:100ba0000a03be004822de00c828dd00048270006f
:100bb000a4d79f000c48a300090032000404e00001
:100bc00007003200e14f420005003200b4d79f0019
:100bd000c8d79f0022002000c2b79f000300370043
:100be000b8d79f0013002000c3b79f0024fd2f003b
:100bf0000f0242000402e800b4b79f0081ff3700f3
:100c0000a1d79f0025fd2f0085824700b5b79f0023
:100c100016002000c6b79f007aff3700a1d79f00bb
:100c20000c0cb3008c007800010cb20032003a00ca
:100c30000c00e00005003d009fb097004105be009c
:100c40004104be0091b79f00080037000c48a30084
:100c50000b0032001fb297004401be0094b79f0002
:100c60000204be004fcdde008a057800b8b79f00b1
:100c7000c9b79f00dab79f00ebb79f0009003700a4
:100c80009fb49700c900780099b79f00610ab90026
:100c9000612bb900b4b79f00c5b79f00d6b79f00be
:100ca000e7b79f003fb49700cfb497005fb59700b8
:100cb000efb59700e00f5400e08f5c00e00f5d009f
:100cc000e08f5d0022003d003c00b3006022b800d0
:100cd0006033b8000804520089845a000a055b009a
:100ce0008b855b00b8b79f00c9b79f00dab79f003c
:100cf000ebb79f00160037000c00e00004003d0039
:100d00001fb497004803be004802be00050037002c
:100d10000c48a300050032001fb497004802be0033
:100d20006033b80098b79f00050037009fb4970064
:100d3000c900780099b79f00610ab8006033b80015
:100d4000b4b79f00c5b79f00d6b79f00e7b79f0015
:100d5000afb297000500e0000d003a001600200039
:100d6000a6b79f003fb49700cfb497005fb5970038
:100d7000efb59700e00f5400e08f5c00e00f5d00de
:100d8000e08f5d00020032008004eb00a9b79f00f5
:100d90000c0578000a0cb2008ab79f0001042000fd
:100da000810f55003400320003003c000a00e000cf
:100db0000800320048003700010820008fb5970076
:100dc000818f550014003200010c2000818f5500e6
:100dd00041003a008204210011c0b3003202be007b
:100de0003203be003fb49700cfb497005fb59700c1
:100df000efb597000440e10005c8e10006d0e1002e
:100e000007d8e100330039008140e800f4cf5000fa
:100e1000f2ff3a002f00370011c0b3000401200098
:100e2000050020006033b8003fb49700cfb49700ae
:100e30005fb59700efb597000440e10005c8e100f9
:100e400006d0e10007d8e100220039004900200067
:100e50000402d0008582d2000683d2008783d200ac
:100e60008904e900faff3a008140e800f0cf500021
:100e7000edff3a001700370011c0b30084002000d6
:100e8000050020006033b8003fb49700cfb497004e
:100e90005fb59700efb597000440e10005c8e10099
:100ea00006d0e10007d8e1000a003900390020002f
:100eb0000402d0008582d2000683d2008783d2004c
:100ec0008904e900faff3a008140e800f5cf5000bc
:100ed000edff3a00a1d79f002fd597008a00fb00b5
:100ee000afb597008b8f500002003d00abd79f003d
:100ef000040037002fb19700810f510001003d0021
:100f0000a1b79f000000e00003003200e30066008c
:100f1000010032000000e9000ce8a30006003200e6
:100f2000afb19700830f500002003400030050005f
:100f3000010037000000eb002fd297008400fb0077
:100f40008002eb00f5af9f00810f500002003400db
:100f500081005000f1af9f000c28a3003c0032003c
:100f6000610166000c18a3000f0032003d009000e4
:100f70000068a30006003200b10220000200e00079
:100f8000010032008180e8000e0178000d0037007a
:100f9000b00220000200e000010032000080e80002
:100fa0008d0078000e0037000200e00010003200d3
:100fb0003d0090000068a300070032000e01780099
:100fc000010220000d007800c6fd07000000e000cf
:100fd00006003a00060037008d007800000220006d
:100fe00023010700e10f4000010032000e07e80076
:100ff0007fab97000600e000520032000604780044
:101000003d0090000068a300070032000e01780048
:10101000010320000d007800b2fd07000000e00091
:1010200006003a00060037008d007800000320001b
:101030000f010700e10f4000010032000e07e80039
:101040000804e900eeff3a00f8af9f003d003700ca
:10105000ffab97000700e000160032000c38a30039
:1010600014003a00070478003d0090000068a300d7
:10107000070032000e017800010220000d00780008
:1010800098fd07000000e00006003a000600370067
:101090008d00780000022000f5000700e10f4000fd
:1010a000010032000e07e8000804e900eeff3a00f4
:1010b000f8af9f00610166000c18a3000f0032001a
:1010c0003d0090000068a30006003200b10220003d
:1010d0000200e000010032008180e8000e0178008b
:1010e0000d003700b00220000200e00001003200d5
:1010f0000080e8008d0078000e0037000200e0005c
:10110000100032003d0090000068a300070032008c
:101110000e017800010220000d00780071fd07002b
:101120000000e00006003a00060037008d0078005d
:1011300000022000ce000700e10f40000100320055
:101140000e07e8002fb497000800e900c204dd0094
:10115000c9af9f006301b90002057800baaf9f00d4
:101160004300dd000104210081004000e1af9f0049
:1011700098003700afb597008b05e900abb79f002b
:10118000000420008fb09700808f5000680032006c
:1011900003003c000100e00008003200730037004b
:1011a000000820000fb19700800f51004c00320062
:1011b000000c2000800f51006c003a000c00e00091
:1011c0001e003d00efa997003304be002305be00ba
:1011d0000802be000a03be003fb09700cfb09700e0
:1011e0005fb19700efb19700c4010700a0d79f003f
:1011f0000000fb00cf80de006109b9000802be00dc
:101200000a03be00260207003fb29700cfb2970044
:101210005fb39700efb397000002520081825a003b
:1012200002035b0083835b00b4b79f00c5b79f00d8
:10123000d6b79f00e7b79f00250037000c48a300f2
:101240001a0032003fb29700cfb297006fab970001
:101250003604be002605be000801be000400be0024
:10126000f4b79f0085bf9f00f1fc0700a0d79f0047
:101270000000fb00cf80de000801be000001070077
:101280007fb297008fba97000002520081825a0005
:101290000404be006055b800b8b79f00c9b79f00ee
:1012a000dab79f00ebb79f0009003700efac97005b
:1012b000190178003fb59700110009000285d80098
:1012c000a2002000110009000280d800a1d79f00d1
:1012d000afd597000b43b000abd79f00230037007a
:1012e000700221000c58a3000100320060012100af
:1012f0003fb29700cfb297005fb39700efb397006c
:10130000cfa897008100e900050033008703d100d2
:101310000683d3008582d3000482d300f9ff37000f
:101320006f02620060427a00a4d79f000f0037006e
:101330003fb09700cfb097005fb19700efb1970033
:101340003faa97000402e900050033008301d100a1
:101350000281d3008180d3000080d300f9ff3700e1
:10136000674060000043b000a0d79f00bd00900020
:10137000afd297000500fb000168a3000700320010
:101380000e017800800078000d007800d5fc070081
:101390000000e00005003a00050037008d007800ed
:1013a00033000700e10f4000010032000e07e800a3
:1013b0004fab970064035300c6af9f00bfab9700cd
:1013c000e3835300b7af9f006fac970068045400ed
:1013d000e8af9f00afb497000900e00065ff3a0056
:1013e0000c38a300160032007fad97000a00e00021
:1013f000130034000a0478003d0090000068a30048
:10140000070032000e017800010220000d00780074
:10141000b4fc07000000e00006003a0006003700b8
:101420008d0078000002200011000700e10f40004d
:10143000010032000e07e8000804e900eeff3a0060
:10144000dfad97001b407800a0d79f000004e000ac
:10145000b7fc3a000e0078004f0778004f06be0038
:101460004f05be004f04be002f02b1000000060071
:10147000889fbe0001047800b80090008084eb00d3
:101480000118a3003a003200180190000198a3004f
:1014900002003a000200e00035003a000190a0008e
:1014a0003104980080047800f90fb2000200e000d7
:1014b00002003a0028009000000c7800ea8f5400e7
:1014c00005003a000178a30003003a008800780084
:1014d000d0002000e6ff070018009000d800900020
:1014e000810f50000b0032000000e800100498004b
:1014f0001800780009487800000ce80011c0b3001b
:101500002021210001487800ea8f540018003a0099
:1015100005003700880078000940780017000700b0
:101520008004780012003700380090000088a30083
:101530000f00320018019000a800900048009000b1
:101540000dfc070098009000810f5000040032004d
:10155000380090000003b300300498008084eb0052
:101560000000eb001004980028009000000c7800a8
:10157000090078004f04be00000006000200fa00d7
:10158000889fbe00a0ff9f000104780038009000f3
:101590000068a30033003a00e200600005003a0052
:1015a0000003b30030049800110498000080eb00a1
:1015b0002e003700d80490000900e00006003a0031
:1015c00012002000e680570048009000eafb070068
:1015d0001904980023003700a80090000100e000e3
:1015e00008003a005121210021049800010c7800e4
:1015f0002100200051049800110498000030a00040
:101600003004980018019000a80090004800900055
:10161000d9fb0700280090008080eb00110498009f
:10162000aff8970001487800000ce8002ff8970009
:10163000ea4f50000b003a00380090000088a300e9
:101640000800320018019000a800900048009000a7
:10165000c9fb07000000eb0010049800a8009000f0
:10166000010c7800aff897000100fb004f04be00aa
:101670000080fa000000060000c0da00000006004a
:10168000020ab900001bb9000200b8008100420044
:101690008100430000000600889fbe008a9fbe00b4
:1016a00030044200b0844a0030054b0090854b0066
:1016b0006000b1000898be000a90be000440e1003e
:1016c00005c8e10006d0e10007d8e10002003100c2
:1016d000680040001008e8004f05be004f04be003f
:1016e00000000600889fbe008a9fbe003004be0036
:1016f0002005be000418540005985c0006185d0023
:1017000007985d00110020000440e10005c8e100d9
:1017100006d0e10007d8e100010039008000eb00ad
:10172000108810004f05be004f04be0000000600e8
:101730001200fa00889fbe008a9fbe008c9fbe00e8
:10174000e0b79f00f1b79f0082bf9f0093bf9f004b
:101750000605be000404be000000eb00d0b79f00e9
:10176000c0b79f00b0b79f00a0b79f0090b79f0081
:101770000006eb005fb19700cfb0970082014100f7
:101780003fb097000200e00004003d003700070072
:101790007e805700c0ff07000300370033000700ba
:1017a0007e805700cfff0700dfb697000d00e000f6
:1017b0000c0035006fb29700ffb297000fbb970087
:1017c0009fbb970010002000010020006011b800ae
:1017d000000272008182720002037300838373002f
:1017e0001b0007000c06e80001042000810f5600d2
:1017f000e0ff3a000d00e00004003d000802be00da
:101800000a03be007e805700a3ff07005fa8970071
:101810000000e00005003a001fb29700afb2970049
:101820003fb39700cfb39700090007006fb0970050
:10183000ffb097000fb997009fb997004f06be0001
:101840004f05be004f04be000080fa0000000600f5
:101850000100070000000600a4b79f00b5b79f0075
:10186000c6b79f00d7b79f00000006004f09de00f3
:1018700082817100b3b79f004f01de00818040007c
:1018800082807000a1b79f008fb097004f09de00e3
:10189000000040000200700090b79f007fa89700f2
:1018a0004f01de00818040008280700081b79f0080
:1018b0000d0007004f3ade000000400004007000f9
:1018c000f0af9f00080007000402420085824a0032
:1018d00006034b0087834b00dfff07000802be00b2
:1018e0000a03be00000006002fb29700bfb29700a7
:1018f0004fb39700dfb3970000000600881f780001
:1019000018002000881f780089ff07008f87e900f2
:101910004f04780000000600801feb0084ff0700e2
:101920008f87e90000000600889fbe008a9fbe00e6
:10193000e00f5000e08f5800e00f5900e08f590091
:101940000c003d006044b8006055b8000000540031
:1019500081805c0002015d0083815d001800200031
:101960001500070008003d00180007000004eb0008
:10197000050037000004eb000f00070002003d00e7
:101980001200070018002000dcff07000800e0003c
:10199000060032006022b8006033b8000000520038
:1019a00081805a0002015b0083815b004f05be000d
:1019b0004f04be0000000600e00f5200e08f5a0006
:1019c000e00f5b00e08f5b00000006006044b800a1
:1019d0006055b8000402540085825c0006035d0077
:1019e00087835d0000000600889fbe008a9fbe00be
:1019f0008c1f7800e00f5000e08f5800e00f590076
:101a0000e08f59000d003d006044b8006055b800fb
:101a10000000540081805c0002015d0083815d0054
:101a20001c0020000820e10009a8e1000ab0e10044
:101a30000bb8e1000d003d00080037000006eb0088
:101a4000e00f5200e08f5a00e00f5b00e08f5b0078
:101a500006003d006044b8006055b8000402540020
:101a600085825c0006035d0087835d00aaff070096
:101a70000c00e000060032006022b8006033b800bd
:101a80000000520081805a0002015b0083815b00ec
:101a90004f0678004f05be004f04be000000060050
:101aa000889fbe008a9fbe008c1f78000006eb0056
:101ab000e00f5000e08f5800e00f5900e08f590010
:101ac00007003d006044b8006055b80000005400b5
:101ad00081805c0002015d0083815d001c002000ac
:101ae000e00f5200e08f5a00e00f5b00e08f5b00d8
:101af00007003d006044b8006055b800040254007f
:101b000085825c0006035d0087835d000c00a200f7
:101b10000c0007000c00e000060032006022b80054
:101b20006033b8000000520081805a0002015b005f
:101b300083815b004f0678004f05be004f04be0056
:101b400000000600889fbe008a9fbe008c9fbe00da
:101b50000404b8000506b8008904460060854e00fc
:101b60000606b8000a054600e0854e000706b800e4
:101b70008b054600040eb800890446000a854e0015
:101b8000e0854d00050eb8000a0546008b854e0025
:101b9000060eb8008b0546000416b8000a0546007c
:101ba0008b854e000516b8008b054600041eb80054
:101bb0008b0546000800be000a01be004f06be00ad
:0c1bc0004f05be004f04be0000000600f0
:020000040000fa
:101bcc0011110000222200003333000044440000b5
:101bdc005555000066660000777700008888000085
:101bec0099990000aaaa0000bbbb0000cccc000055
:101bfc00dddd0000eeee0000cecd0000acab000051
:101c0c0002020000030300000404000005050000ac
:101c1c000606000007070000080800000a0900007b
:101c2c00101000001011000012120000496d00008d
:101c3c00704800006f72000061000000456e0000eb
:101c4c00764500006e7400007200000050720000b7
:101c5c005365000072000000456e000074720000b5
:101c6c0061640000617300003a2000002530000020
:101c7c00327800000a0000002530000032640000b9
:101c8c003a25000030320000643a00002530000094
:101c9c00326400000a000000494400004c4500007a
:041cac000000000034
:020000040000fa
:101cb00080007800e10190000000eb00821221001a
:101cc000828f510008003a00c1089000c211210023
:101cd000828f50000400320001f0a7008100ea006a
:101ce0000100e9004f00de000000060000878000d0
:101cf000e10f500004003600a8240200000000009c
:101d000000000000faff3700ffff3700804080002e
:101d10001000e00003003a0034a8ef0036a8ef00fe
:101d200000000600804080004000900040009000cd
:101d300010019000a0019000a2418800b3418800ea
:101d400000000600889fbe000004be000040800026
:101d50001800980029009800204080003140800041
:101d6000800f5400818f5c0005003100014080002d
:101d7000704080008180e8004a0b07000b003700ac
:101d800001408000804080008180e800450b070012
:101d9000a0418000b1418000800f5400818f5c0021
:101da00002003100a8418800b94188004f04be00fc
:101db00000000600e4874700889fbe008a9fbe009f
:101dc0008c9fbe008e1f780080bf9f00810478002a
:101dd000020678000307780004057800850678007d
:101de0008605780040022000a90b07000004780057
:101df0000080eb000800e000660032000b00e0000d
:101e00006a003a000c004600a10b0700600c980025
:101e10000000e00066003a0008007800b70b0700f9
:101e20000080eb005b003700596878001904e0007f
:101e300002003200818f5400fbff3a000040eb00ab
:101e4000106498008a047800e40f55000100360001
:101e500049002000590c98000886e8000c00780022
:101e6000030b07006e004400010b070058049800a4
:101e7000500020000100200009005000e0805800c0
:101e800070049800010c9800380c98000e0178003e
:101e90008fb897000b007800420a0700000c78000a
:101ea0000d00e00001003200880e78008a0a070069
:101eb0001428ec000008e20019003a0008408800ed
:101ec000a0408000e10f50001c003a008004eb00ad
:101ed0000b0e21006c48b90000804500da0a0700ab
:101ee0008904e800e58f5400faff3a00401321000e
:101ef000d50a070000142100d30a0700c0112100f1
:101f0000d10a070080122100cf0a070040132100e8
:101f100080408800001421007040880007003700ce
:101f20001608e20005003a000040800050089000ca
:101f3000800f550001003900084088001828ec0087
:101f4000580890000a08e300010031005040880062
:101f50006c00b900020e2100000041008c007800e6
:101f6000c60a07005f0a0700100020001608e200fa
:101f70000800320000408000d008900010002000cf
:101f8000810f550003003600a82402000000000065
:101f9000000000004f0778004f06be004f05be004e
:101fa0004f04be004f00b100000006006b0c98000b
:101fb000e80d90000c06e9000c0646000c86450072
:101fc0001c14980019407800605c98001904e00027
:101fd0009aff32007e004400e380440092ff370005
:101fe000889fbe008a1f78000004be00e48f540062
:101ff0000100360049002000370a07000800e00011
:1020000001003a000840800058089000890f5000f5
:10201000350032000b0031000005eb00014080006c
:10202000888f50000d003200014080001a0020000f
:10203000d1089000898f5000080036000005eb00a1
:102040000600370001408000088568000af0a700fc
:102050000a05ea000a05e9004f55de00590c980010
:102060007801900088099000e00f5100e08f59003e
:102070000600350052002000030020000901510035
:10208000e081590072049800030c98006c00b900bc
:10209000020e210000004100e8009000808f5000f7
:1020a0000c003a008884e80009007800920a0700d2
:1020b000580890000a08e3000100310050408800f1
:1020c0006c00b900020e2100000041008900780078
:1020d0006a0a0700e10f550003003a00a824020035
:1020e0000000000000000000fe0907004f05780016
:1020f0004f04be0000000600889fbe000004780068
:102100000800e0001d00320000408000880f5000f1
:102110001a003200f009070008007800e4fe07000a
:10212000e10f500014003a008884e80009007800ac
:10213000710a0700580890000a08e3000100310006
:10214000504088006c00b900020e210000004100e0
:1021500089007800490a070000408000d8089000f4
:1021600050089000808f500003003900a82402001e
:102170000000000000000000da0907004f04be0064
:1021800000000600889fbe008a1f780000047800c7
:1021900008007800c6fe07008004eb00e10f500045
:1021a0001a003a000c08e20014003a0000408000d7
:1021b00019002000d808900050089000808f50002f
:1021c000010031008004eb000885e8000a00780077
:1021d000490a0700580890000a08e300010031008e
:1021e000504088006c00b900020e21000000410040
:1021f0008a007800210a070004003700ee0044003e
:10220000c01121001d0a07008004eb0009007800be
:102210004f0578004f04be00000006006033b80090
:102220006022b8008001eb00d207200021e52800e1
:1022300060e72000dffe0700e10f500005003a00d4
:1022400042a0a800b04088000428ef000628ef0054
:10225000820907000000060042a0a8001628ef002f
:102260006e0937000c28ec0000000600889fbe00b5
:10227000990907002840800039408000990907002b
:102280000800be004f04be0000000600224080008f
:10229000334080000200be0000000600a040800025
:1022a00000000600889fbe008a9fbe008c9fbe0073
:1022b0008e1f78000c08e2004a003a00204080009f
:1022c0003140800061004000e080480020408800ec
:1022d000314088002c4080003d408000e00f5600d7
:1022e000e08f5e0006003a00804080000e08f80093
:1022f0001008f900704088000828ec0083fe0700f1
:10230000a0418000b14180000005eb00800f560025
:10231000818f5e002b0039000b0e21001e00200073
:10232000010037000e057800804080001000e000ba
:1023300003003a0034a8ef0036a8ef002100370070
:102340008040800040009000400490001800900001
:10235000a8009000800f5600818f5e0003003100be
:10236000a0418800b1418800160037008884e80049
:1023700009007800e0090700480890000000e0002c
:10238000020032006e004400db090700580890008c
:102390000a08e30001003100504088006c00b900d9
:1023a0000080450089007800b409070000408000e3
:1023b000d808900050089000808f5000d9ff31005d
:1023c000d9ff370000408000500890006c00b90031
:1023d000020e210062007800e10f500004003e0070
:1023e000040037001228ec000005eb000100370064
:1023f0001a0020000208e200010032001a0020004a
:102400000a0078004f0778004f06be004f05be0057
:102410004f04be0000000600889fbe008a9fbe00d9
:102420002d0907000c28ed000004eb000c08e20069
:1024300032003a001408e20018003a002f0037007a
:1024400020898000400490006e004400aa09070023
:102450008884e80009007800a70907005808900060
:102460000a08e30001003100504088006c00b90008
:102470000080450089007800800907000040800046
:10248000d808900050089000808f50000500390057
:10249000100020001040880002003700ca112100ff
:1024a0000b0e21001a00e000e5ff3a001208e200de
:1024b0000a0032001208e200080032001800200072
:1024c00078ff07000000e00001003200184088009b
:1024d0001228ed001208e200f9ff3a0010408000d7
:1024e0000004eb00e10f500004003a00a8240200b1
:1024f000000000000000000018002000f90807009c
:10250000080078004f05be004f04be000000060022
:10251000889fbe008a9fbe000004be00e00f5000ee
:10252000e08f58000b0032004eff07002a40800069
:102530003b4080000088ec006f0907000800450060
:1025400089804d00fffd0700b3ff07000000e00099
:1025500003003a00a8240200000000000000000070
:102560004f05be004f04be0000000600889fbe005d
:102570008a1f7800000578000204be0039ff0700ba
:1025800022408000334080001a00be000804400052
:1025900089844800800f5100818f59000800310064
:1025a000880f5000898f580019003600088dbe0032
:1025b000880f5100898f59000c0031000700370047
:1025c000880f5000898f58000f003e00880f51007f
:1025d000898f59000c0039000d0037000088ec008d
:1025e000450907000800be00d6fd07008aff070066
:1025f0000000e00008003a00a824020000000000eb
:102600000000000004003700088dbe00f3ff370013
:10261000088dbe00f5ff37004f0578004f04be005f
:10262000000006000c08e200030032001000200049
:1026300010408800000006000228ef005040800093
:102640006c00b900020e2100620078000000e0007a
:1026500006003a000a28ed00504080006c00b900e6
:10266000620078000000e000faff32005240800073
:102670006c10b900800078008181e800000e210014
:10268000e0817900a301900001024000130298004c
:10269000e480400000804000808f510004003a0038
:1026a0006c10b900240e2100a301900003327800c1
:1026b0006c11b9000281e800000e21006000790071
:1026c000400090000040880000000600889fbe0087
:1026d00000047800800807000800e00001003a00cc
:1026e000084080008884e80009007800020907009b
:1026f000480890000000e000020032006e00440034
:10270000fd0807008900780080122100db0807001f
:102710007408070000408000880f50000d003a0048
:102720001608e20004003200a824020000000000a5
:10273000000000000c003700408980001408e3000e
:1027400002003a000028ef0007003700b5ff07003d
:10275000050037001608e200030032005e0807009b
:102760006afd07005f0807004f04be000000060076
:10277000889fbe000204be0001408000ee80400041
:10278000c80807000088ec00db080700e10f4400e0
:10279000e08f4c0005003a00014080008180e80095
:1027a00080122100b5080700050037002040800096
:1027b00031408000080040008980480061fd07002a
:1027c0004f04be0000000600889fbe000404be0047
:1027d0000140800003f0a000f200980083089800f8
:1027e00001408000ee804000a40807000088ec0053
:1027f000c1080700e10f4400e08f4c0005003a00db
:10280000014080008180e800801221009b080700c1
:102810000500370020408000314080000800400063
:102820008980480047fd07004f04be0000000600f5
:10283000889fbe0040009000c00490006e84440059
:1028400008007800ac0807000c08e2000d003a0010
:102850000984e80008007800a708070059089000dc
:102860000a08e30001003100504088006c00b90004
:10287000020e210000004100880078007f08070058
:102880000300370088007800c01121007b08070092
:102890000040800059099000d00890000000eb0033
:1028a000810f510002003600100020001040880007
:1028b0004f04be0000000600889fbe000202be005a
:1028c00005f0a0000488be00400490008a080700bc
:1028d0008884e800090078008708070058089000fd
:1028e0000a08e30001003100504088006c00b90084
:1028f000020e210000004100890078005f080700f7
:102900000040800058099000d00890000000eb00c3
:10291000810f510002003600100020001040880096
:102920004f04be000000060041408000010878000e
:10293000224080003340800012009800230098005d
:1029400000000600889fbe008a1f7800800478007f
:1029500001057800e0070700224080003340800036
:102960001a00be000004eb00e10f4000e08f4800b9
:10297000190032001902780045408000848f52000f
:102980000600320019029000a902900018002000f1
:10299000840f5100858f59000f00310019029000fb
:1029a000a9029000040351008583590018002000fb
:1029b000860f5000878f5800070036000201520032
:1029c00083815a00001d41000195490009007800eb
:1029d000d5ff07000004eb00c207070008007800dd
:1029e0004f0578004f04be000000060010002000d4
:1029f0001040880000000600014080007100900037
:102a0000810890000240800003408000d3099000bc
:102a1000540020000500200003025200e0825a000a
:102a2000740198000509980000000600889fbe0008
:102a30000004780082047800281190000200e00071
:102a4000220032000900e0000c003a00280090004b
:102a500007f70700a80090002810900000804000b1
:102a60002004980098009000810f50001700390052
:102a700018007800200498001400370038009000f7
:102a8000fbf60700a81090008100ea0038009000d3
:102a90000100400030049800980f500003003100fe
:102aa000180090008100400031049800e28f54002b
:102ab00006003a00081090000000e0000300320019
:102ac000081090000000e900001498000810900021
:102ad0000000e800001498000000eb004f04be0066
:102ae0000000060081017800201190000200e00043
:102af0000b003200b000900082804000310098004e
:102b000010029000848f500002003900900078007d
:102b100031009800b000900003007800d4f6070060
:102b200000000600881f7800000478006a0707008c
:102b300088109000181090000084680008f0a7002a
:102b40000804ea000804e9004f44de0065070700b6
:102b5000080078004f04780000000600889fbe003f
:102b6000000478005c070700481090000000e000b7
:102b700014003400280890000000e00005003a002e
:102b800010003700280890000000e00002003a0022
:102b90000c003700f40444000900780024ff07000b
:102ba0000000e0000100320090ff07004810900094
:102bb0000000e90040149800481090000000e00078
:102bc000f0ff3c000080eb00401498004507070030
:102bd00041070700381090000000e00014003400a6
:102be000480090000000e00005003a0010003700a7
:102bf000480090000000e00002003a000c0037009e
:102c0000e80444000900780009ff07000000e00024
:102c10000100320075ff0700381090000000e90045
:102c200030149800381090000000e000f0ff3c00e5
:102c30000080eb00301498002a0707004f04be0004
:102c400000000600889fbe000004be0022070700a7
:102c50001800780018119000a8109000028ab9009e
:102c600084014000130498008001eb0003149800d5
:102c7000200498000201e9000191b900820040009f
:102c8000310498000080eb00301498004014980044
:102c90000900e0000b003a00480090000000e0004e
:102ca0000c00320068004400e1fe0700e10f500014
:102cb00008003a00a8240200000000000000000004
:102cc00004003700680044005f07070074004400f8
:102cd0005d07070003070700100020004f04be0037
:102ce00000000600889fbe008a1f78000004be0016
:102cf0000000eb000800e00016003200a0022000f7
:102d0000e3070700000578000000eb000a00e00080
:102d10001000320008c8b9000000e800dc07070016
:102d2000000d78000000e000070032001815980040
:102d300029159800110020000a007800c1ff070043
:102d40000a007800030037000a007800eb0707004c
:102d50000000eb004f0578004f04be0000000600a5
:102d60000a00fa00889fbe008a9fbe008c1f780070
:102d70000106780092bf9f00a3bf9f000405780062
:102d8000000478008004eb00e8054400d206070048
:102d90008810900018109000808f500002003900b9
:102da000e20f550017003a000a0178008c00780005
:102db000080078001dff0700a80890000100e0004f
:102dc000080032007400440099fe0700e10f500033
:102dd00009003a00a82402000000000000000000e2
:102de000050037000000e00003003200a8240200c4
:102df0000000000000000000ba06070010002000dc
:102e0000390037001fb89700afb89700e00f5000a7
:102e1000e08f580003003a00b20607000000eb0004
:102e2000310037000900e00003003a0074805700c9
:102e3000bdfe070019002000aa06070009fd0700d3
:102e4000a506070038109000e10f400002003a008c
:102e50000000eb003014980048109000e10f400093
:102e600002003a000000eb00401498009d060700a5
:102e7000ee80570074805700b2fe07000000e000ab
:102e800015003a000800780026ff07000000e00067
:102e90000d0032001fb99700afb997000b00780002
:102ea00033fe0700080078002cff07005afd0700da
:102eb0000000e000b5ff3a00a82402000000000076
:102ec00000000000b1ff37000800780023ff070072
:102ed00051fd0700adff3700080078001fff070015
:102ee0004dfd07000000eb004f0678004f05be00c7
:102ef0004f04be000080fa0000000600889fbe005c
:102f000082047800000478000811900018109000e6
:102f1000800f5100030039000000eb00e28f5100e8
:102f20001e003a000301780008007800bffe070089
:102f30000000e000040032000900e000020032005e
:102f400010002000800c780048109000e10f400035
:102f50000e003a00a8089000100020000100e000d8
:102f60000e0032007400440031fe0700800078003b
:102f7000100020000100e000080032000900e0001d
:102f800006003200800c78000400370048109000e2
:102f90000000e80040149800100020004f04be001c
:102fa000000006000a00fa00889fbe008a9fbe004b
:102fb0008c9fbe000106780082bf9f0093bf9f00d8
:102fc00084067800000478000005eb00f405440056
:102fd00041060700081090000000e00022003200c7
:102fe000b80490008c00780008007800bdfe07004f
:102ff0000d00e0000e003a00081090000000e9000b
:1030000000149800480090000000e0001300320017
:103010006800440006fe0700e10f50000f003a0070
:10302000a824020000000000000000000b00370090
:1030300039049800280890000000e00007003200e2
:1030400074004400fafd07000000e00003003200b5
:10305000a824020000000000000000002106070074
:10306000100020003a0037000fb897009fb8970073
:10307000e00f5000e08f580003003a0019060700e7
:103080000000eb00320037000a00e00003003a00c5
:103090007680570024fe07001a0020001106070062
:1030a00070fc07000c06070038109000e10f40008c
:1030b00002003a000000eb00301498004810900025
:1030c000e10f400002003a000000eb0040149800bd
:1030d00004060700f08057007680570019fe0700ad
:1030e0000000e00016003a00fb050700881490007d
:1030f000fc0507000900e0000d003a000fb9970039
:103100009fb997000b00780099fd07000800780030
:1031100092fe0700c0fc07000000e000acff3a0090
:10312000a82402000000000000000000a8ff3700f3
:103130000800780089fe0700b7fc0700a4ff3700ed
:103140000800780085fe0700b3fc07000000eb00d4
:103150004f06be004f05be004f04be000080fa00bf
:1031600000000600889fbe008204780000047800fa
:10317000081190000000eb000200e0001a0032008d
:103180000800780057fe0700081090000000e900d2
:103190000014980038109000e10f40000e003a0033
:1031a000c8009000100020000100e0000e00320076
:1031b000680044009efd0700800078001000200099
:1031c0000100e000080032000900e00006003200c3
:1031d000800c780004003700381090000000e800f0
:1031e00030149800100020004f04be0000000600bc
:1031f000889fbe0000047800081190000000eb00da
:103200000200e00005003200b804900008007800d9
:1032100034fe070039049800100020004f04be005f
:1032200000000600881f780000047800aa05070047
:1032300008149000ab050700080078004f047800e0
:1032400000000600889fbe0080047800a2050700e9
:10325000091090001914900000045400a105070003
:10326000080078004f04be00000006000010900027
:1032700000000600881f780000047800180078001d
:103280000000e000010032009c0607000800780002
:103290009a0607004f047800000006000010900016
:1032a00000f0a7000000ea000000e9004f00de0087
:1032b0000000060080109000101090000080680050
:1032c00000f0a7000000ea000000e9004f00de0067
:1032d00000000600889fbe008a9fbe00810578001e
:1032e0000204be000005780042a0a8000a00780091
:1032f0000cfe07000000e0000c003200e00f54005c
:10330000e08f5c0006003200680145000800be0046
:103310007c02070042a0a900c0ff2f00190037005f
:1033200042a0a9000000eb001600370042a0a9004f
:1033300042a0a8000a1190009a1090000000eb0033
:10334000810f51000e0031000001eb000a00be00a9
:10335000b6fd0700aa089000100020000100e00060
:103360000700320074004500210307008000780048
:10337000b0ff2f000100e00001003a001000200023
:1033800042a0a9004f05be004f04be000000060089
:10339000881f780000047800010278000200be0057
:1033a00042a0a800081190000200e0000b003a00c3
:1033b000e00f5000e08f5800050032007401440017
:1033c0005002070042a0a900c0ff2f0024003700d0
:1033d00042a0a9000000eb002100370042a0a90094
:1033e00042a0a800881090000000eb000100e0005f
:1033f0001a003200281190003800900002004000ae
:103400003004980098009000810f500002003900ad
:103410001800780030049800081090000000e900bf
:1034200000149800b80090000400780090f40700a1
:10343000c8009000100020000100e00007003200ea
:1034400068004400ea02070080007800b0ff2f0007
:103450000100e00001003a001000200042a0a90095
:103460004f04780000000600889fbe0082047800a8
:10347000000478000811900018109000800f51008f
:103480000f0031000001eb000800780067fd070025
:103490000900e0000a003a00280890000000e0005f
:1034a0000700320074004400d10207008004780055
:1034b00009f0a7008904ea008904ea00cf4cde0085
:1034c000090078004f04be0000000600889fbe007f
:1034d0000004780081017800820478008810900050
:1034e0000000eb000100e0001c00320028119000f9
:1034f00038009000020040003004980098009000ce
:10350000810f500002003900180078003004980044
:10351000081090000000e90000149800b800900026
:103520000300780052f40700100020001900e000aa
:103530000a003a00c80090000100e00007003200d5
:1035400068004400aa0207008000780010002000f4
:103550000100e00001003200800c78004f04be0042
:10356000000006000400e0000e003a0002006000c7
:1035700083806000610ab800c021dd0002002000e5
:103580006102b8000401710085817100028171003f
:1035900002f0a7000201ea000201ea004f10de007b
:1035a000000006000203600083806000610ab8002a
:1035b000c020dd00000020006132b800040070006f
:1035c00085807000000169008181690002817100bd
:1035d0000200780000f0a7000000ea000000e90007
:1035e0004f00de0000000600881f78000001200068
:1035f000a7050700000478000800e000040032007e
:10360000080078000018eb000018eb000e0507001a
:10361000080078004f04780000000600e6874700a5
:10362000889fbe008a9fbe008c9fbe008e1f7800c0
:103630000204be000107780084067800f6b79f00f8
:1036400087bf9f000005780006fb07009a057800f9
:103650001a0690000d0278000801be000b007800e9
:103660008c007800bfff07000000e0000d00320072
:103670000e00e000220032000884ea008984ea009b
:1036800008826500090066008000eb00c001dd00d3
:10369000020020006120b800001d7100019571003a
:1036a000170037007fb097008fb89700e00f5000e9
:1036b000e08f5800120032000200200003102000aa
:1036c0000e00e00001003a006011b8000d00e000bb
:1036d0000100320003a0a00008017100898171007f
:1036e000640045007fb297008fba970036fc070050
:1036f00049fb07000000e000070032000900370026
:1037000045fb07008b0078000c0078000101780071
:103710008001780026003700a82402000000000085
:1037200000000000b4fc0700000678008105780066
:103730000b98a30017003a00670407001a067800e8
:103740009a0590000d0278000801be000c00780078
:103750008b00780083ff07000000e0000c003200bf
:103760000e00e0000a0032000884ea008984ea00c2
:1037700008026600098065008000eb00c001dd00e2
:10378000020020006120b800001d71000195710049
:10379000540407000b80fb008000eb00c001dd003b
:1037a000020020006160b800000171008181710099
:1037b0000200be004f0778004f06be004f05be0056
:1037c0004f04be006f00b10000000600889fbe00dd
:1037d0008a9fbe008c1f7800000578000204be009e
:1037e0003d0407009a0578001a0690000884ea0054
:1037f0008984ea0008826500090066008000eb0009
:10380000c001dd00020020006120b800001d710031
:1038100001957100330407000b0078008c007800dc
:103820004f0678004f05be004f04be0000000600a2
:10383000100178009000900002007800000006005f
:10384000e6874700889fbe008a9fbe008c9fbe000f
:103850008e1f78000204be0000057800e8064500cf
:1038600080fa07006a0090001a1d74001a9574000f
:103870006011b800f2b79f0083bf9f00808f560091
:103880004100320009f02f00fb0f20000c40200007
:103890000100370008007800200490001003780031
:1038a00010029000890062000b0262008002eb00af
:1038b000c021dd00020020006132b8000401710067
:1038c00085817100010266000f003a001a03900022
:1038d0001a076100030363008003eb00c032dd00c0
:1038e000040020006173b800060272008782720033
:1038f0000482720004f0a7000402ea000402ea0055
:103900004f22de00100037001a0390001a076100f2
:10391000030363008003eb00c032dd0004002000dd
:103920006173b800060272008782720004026900a7
:10393000858269000482720004f0a7000402ea0094
:103940000402e9004f22de000400e0000c00320017
:103950000410200081006200060032007fb2970050
:103960008fba97000202720083827200f4b79f0040
:1039700085bf9f001a01be000390a000cefb070088
:10398000888f5600c3ff3a007fb097008fb897002a
:103990000081ea008181ea001a0090001a026100a9
:1039a000030060008000eb00c001dd000200200089
:1039b0006120b800001d71000195710096fa0700a2
:1039c0001a0078009a0090004f0778004f06be005a
:1039d0004f05be004f04be006f00b100000006009e
:1039e0000800fa00889fbe008a9fbe008c1f7800e6
:1039f0000205be0094bf9f00a5bf9f00f6b79f00c1
:103a000087bf9f000006780016fa07001c04be005e
:103a10000a01be000c00780089ff07000804750049
:103a2000898475009fb99700030264002fb897003e
:103a3000008164008001eb00c010dd000000200068
:103a40006121b80002007000838070001fb99700e8
:103a5000afb99700820f5000838f58000c003a00d6
:103a60000080ea008180ea001c0190001c026000d6
:103a7000010061008000eb00c001dd0002002000b9
:103a80006120b800001e710001967100140037001b
:103a90007fb097008fb89700e00f5000e08f58007c
:103aa0000e00320002002000035020001fb89700d3
:103ab000afb8970002017000838170006400460077
:103ac0007fb297008fba97003ffb070052fa0700ba
:103ad0000000e00004003200060037001c04be00b5
:103ae0004dfa07002c003700a82402000000000057
:103af00000000000c0fb070000057800010478000a
:103b00000898a3001d003a00730307001c05780005
:103b10001c0490009fb8970001026500afb99700a0
:103b2000030164008001eb00c010dd0000002000f4
:103b30006121b80002007000838070001fb99700f7
:103b4000afb99700820f5000838f58000a003a00e7
:103b50000080ea008180ea00000265000100640044
:103b60008000eb00c001dd00020020006120b800f1
:103b7000001e7100019671005a0307000880fb00c7
:103b80008000eb00c004dd00080020006150b80098
:103b900000047400818474000800be004f067800a1
:103ba0004f05be004f04be000080fa000000060072
:103bb000889fbe008a1f780000057800a9f90700d9
:103bc0002a0090000000e0000800320008002000f9
:103bd000092020006a0090000801be0036fb0700a3
:103be0002a0090000000e000faff3a000a00780086
:103bf0004204070008fa07004f0578004f04be0092
:103c0000000006000eff3700f0fe3700889fbe0060
:103c10008a9fbe0080057800010578008204780044
:103c2000000220001a040700000478000080eb0066
:103c30000800e000300032001a08e2000f003a00ed
:103c4000d8408800c01b21007f030700801c210092
:103c50007d030700401d21007b030700001e21009b
:103c600079030700001b210077030700401d210096
:103c700050418800001e2100604188000a00e000d9
:103c8000010032001a0020000000eb00700c9800c8
:103c90005a0c9800690c9800880478008b1c7800f6
:103ca00009007800720307006e00440070030700eb
:103cb00058049800380c98002000200001002000d3
:103cc0000a055000e08558007a0498000b0c980013
:103cd000580890001c08e30001003100e040880013
:103ce0006c00b900c21b210000004100890078006f
:103cf00062030700100020004f05be004f04be0005
:103d000000000600881f78008a9fbe000204780029
:103d10003a4180004b4180000005450081854d00ff
:103d20001a88ec0074030700d14080009a009800c4
:103d3000ab0098003241800043418000820f550063
:103d4000838f5d00040031008180e80060418000c5
:103d500054030700030037008180e80050418000d1
:103d6000500307000800e00004003200d14080004a
:103d7000ee804000080078004a0307004f05be00af
:103d80004f04780000000600889fbe008a9fbe0096
:103d9000808d80000000e00015003200ca1b210069
:103da0000b1b210042a0a800c08d800040049000a1
:103db0006e0044005003070042a0a9008884e80078
:103dc000090078004c030700580890001c08e30025
:103dd00001003100e04088006c00b900000045009f
:103de00089007800250307001b00e000edff3a0082
:103df0001ef90700f24080000341800002005000dd
:103e00008380580010418800214188000a02200068
:103e1000cb1b21003c00370034418000454180002d
:103e200061004200e0804a00304188004141880042
:103e300061025100e0825900144188002541880048
:103e4000e00f5000e08f580004003a00524180001b
:103e50002c08f8002a08f9006241880052418000cd
:103e60001200e0002800320042019000420490005d
:103e700018019000a8019000800f5100818f590017
:103e80000a003600200037004000900040049000f7
:103e900018019000a801900030418000414180004d
:103ea000800f5100818f590017003e0010028000e2
:103eb00000007500100288008884e800090078007e
:103ec0000d030700480890000000e00002003200e7
:103ed0006e0044000803070042a0a90058089000a3
:103ee0001c08e30001003100e04088006c00b900cc
:103ef0000080450089007800e00207005041800002
:103f00001000e000e0ff3a001241800023418000f1
:103f1000e00f5100e08f5900bfff3a0030418000b0
:103f200041418000f040880001418800e04080006d
:103f30006c01b900c11b2100e10079000100e00023
:103f400010003a000000e000260032000001e90005
:103f50006c11b900c11b21008280400005003700b0
:103f6000ec8050000000e00002003a00e0408800d1
:103f70001c0037000000e9001100e000f8ff3200eb
:103f8000e04088006c01b9008281e800c11b21007b
:103f9000e1817900a30190000282400013029800a1
:103fa0006401410081004100818f510004003a000a
:103fb0006c02b900e11b2100a301900083307a005c
:103fc0006c00b9000080e800c11b2100610078008e
:103fd00040009000d0408800e00890001001780078
:103fe000020001004f05be004f04be0000000600a5
:103ff000889fbe0040009000c00490006e84440082
:1040000008007800bc02070088007800001b21002f
:104010009a0207001000200059099000d14080004a
:10402000d1089000810f5100010031000000eb0029
:104030004f04be0000000600f1ff2000a22c20006b
:10404000128960001000fb000080ea004c00dd00d7
:10405000ca22b700000006000200fa00889fbe00d6
:10406000c81421008044eb000002eb000081eb004b
:104070008081eb00e680570080418000c9fb07008b
:10408000e10f5000f8ff3a002183200091407800b2
:104090000181fb002ff8970000747900ea4f50006f
:1040a00007003a0002014400194198000800780016
:1040b000e1ff07002083200009487800eaff37006d
:1040c0008140e8000140780032e8b700e6ff3700a1
:1040d000889fbe008a9fbe001004e0000b003200e3
:1040e000000578008005eb00883e200009002000d4
:1040f0000b0278000801be008a0078007041800041
:1041000017fb07005a04e000f9ff3a009580a80069
:104110008580a8004f05be004f04be0000000600c9
:104120000001be0060532700c125200040f10700b8
:10413000c409de004c0add004401de000201720009
:104140008200e900411188002002a90090ff2f00a1
:104150002022b60020a2a9002062a900f0cf2f00e3
:104160002022b60021a2a90023a2a90023e2a800d0
:10417000f0f32f002222b600c0ff2f00aa00b600e5
:104180000020a00050058800f0ff2c00a800b60019
:1041900000e0a000400588008580a9008560a90096
:1041a0009580a9009560a80021e2a8002342a800fc
:1041b000f20b2000103a8000000161006004200032
:1041c000710520002374200080497800814978001f
:1041d0008249780002fe2f002435800084016100ae
:1041e0005300b300233588002336800003016100ab
:1041f0003200b30022368800123a80000260a0002c
:104200002374200080497800814978008249780031
:1042100000000600f0ff2000401688000041eb007f
:104220001100200040062000aefa070080418800ff
:104230000041eb001100200040062000a9fa070011
:10424000704188003008e200020032000000e00007
:1042500001003a00ffff370000202c001100200071
:10426000afff37003600f800809fbe00829fbe007f
:10427000849fbe00869fbe000400fa0030118000bb
:10428000c0ff9f008001eb000f81e900e480570030
:104290008041800019fb07008560a9007fb8970066
:1042a000e10f500003003a00a824020000000000c3
:1042b000000000000080fa004f03be004f02be0065
:1042c0004f01be004f00be003600f900004006005e
:1042d0003600f800809fbe00829fbe00849fbe0013
:1042e000869fbe000400fa008580a9000f81e900c6
:1042f000e4805700704180009afb0700e10f5000f6
:1043000004003a00cff897000100fb00201188005c
:10431000010037009580a9000080fa004f03be001d
:104320004f02be004f01be004f00be003600f90034
:10433000004006001000fa00889fbe008a9fbe0061
:104340008c1f7800087d2000090020008b212100af
:104350000b85e8002ce428000002eb000801be00f9
:104360008000eb00e04180000efb0700e10f5000f1
:10437000f9ff3a0010028000000eb300100288001e
:10438000000000001b007800b0b79f009a40780042
:1043900081ef9f00f0f12f004220b60000000000e6
:1043a0000180fb00801f78005fe097000080fb0029
:1043b000801f7800afe097000180fb00801f78002d
:1043c0008c1f78007f805700b0f007000002eb00e0
:1043d000823e2000030020008000eb00204280008d
:1043e000f0fa0700e8875700e10f5000daff3a00c3
:1043f0007780570036ff07000002eb006011b8001d
:104400008000eb002042800055fa0700d2ff370001
:1044100032c0b3008000eb001000200031fa07002a
:10442000e04188000000e000040032000002eb00e0
:104430006011b8008000eb0049fa07000002eb00b1
:104440006011b8008000eb00e0418000d5fa070061
:104450001021ef000621ef00801c2f00600888006b
:104460003005800000c0a00000d0a10000e0a10045
:104470003005880084e0a90094e0a800000228002c
:1044800080088800000006003600f800809fbe000b
:10449000829fbe00849fbe00869fbe003400f8004d
:1044a00000002000a00188000200fa000000eb00dc
:1044b000f0bf9f003e08ec00f0418800ea0f50007a
:1044c0001d003a003e28ef00a12121001140e80024
:1044d00080487800c1c3b300814f500011003a00fa
:1044e000a02121000048eb008000e9001140e80015
:1044f00080487800c1c3b300814f500009003a00e2
:10450000902121000048eb008000e9001140e80004
:1045100080487800f84f500002003a00010078000f
:104520000048eb008001eb000f81e9008000eb0008
:10453000e041800071fa070084e0a9007fb897008d
:10454000e10f500003003a00a82402000000000020
:10455000000000000080fa003400f9004f03be00a4
:104560004f02be004f01be004f00be003600f900f2
:044570000040060001
:020000040000fa
:10457400e01000006c0000000000000000080000d3
:104584001a000000000000003408000004000000cd
:1045940002000000ffffff00ff000000b011000058
:1045a4003c000000000000001a0800001400000095
:1045b4000000000046080000d007000000000000d2
:1045c400380800000400000000000000400800005b
:1045d4000200000002000000ef0000004c11000087
:1045e40064000000000000002e0800000600000027
:1045f400000000004208000002000000000000006b
:104604001812000004000000000000003c08000034
:104614000400000000000000440800000200000044
:104624000000000016100000ca0000000200000094
:1046340030313200333435003637380039414200e6
:1046440043444500460030003132330034353600ef
:1046540037383900616263006465660000286e00c3
:10466400756c6c00290000000100000000000000cf
:1046740000000a00000000000000000000640000c8
:104684000000000000000000e8030000000000003b
:1046940000001000270000000000000000a08600b9
:1046a400010000000000000040420f000000000074
:1046b4000000800096980000000000000000e10067
:1046c400f50500000000000000ca9a003b0000004d
:1046d40000000000e40b5400020000000000e800a9
:1046e40076481700000000000010a500d4e8000080
:1046f40000000000a0724e001809000000004000f5
:104704007a10f3005a0000000080c600a47e8d00d9
:104714000300000000c16f00f286230000000000c7
:104724008a5d78004563010000006400a7b3b60009
:10473400e00d000000e889000423c7008a0000009f
:10474400ec1100002600000002000000131200001b
:1047540000131200090000000002000015120000fe
:10476400001512000e02010000000000000000000d
:10477400000000000602020000000000ec1100002e
:104784001212000006000000000000001c120000cd
:10479400020000000200000001000000cc2680009e
:020000040000fa
:1047a4003600fa00a3fc2f008381470064de280052
:1047b4001a000900b4197800800178008119780082
:1047c4008000eb0081197800811978008219780043
:1047d40082fc2f000f014100e003b0008300780049
:1047e400d2187800808f5000fdff3a00600320004b
:1047f40003004000210280000118780041032000da
:10480400914078008180fb00011878000018eb00cb
:104814000080fa0000000600000006000421ef00fa
:104824000021ef0070352100100888002005800069
:1048340000c0a00000d0a10000e0a1002005880075
:104844008460a9009460a8000481a80004a1a900c0
:1048540005e1a80000000600f0ff0700004080000a
:10486400900778004f007800004288003400f90077
:104874004400f9004000f9003e00f9003c00f90052
:104884003a00f9003800f9002c00f9002a00f90078
:104894002800f9002600f9002400f9002200f9009c
:1048a4003200f9003600f9004f0778004f06be00c9
:1048b4004f05be004f04be004f03be004f02be00b2
:1048c4004f01be004f00be004200f9000000060088
:1048d4001000050042a0a8004028ec0000000600db
:1048e4004008ed000042880001003a0042a0a900ff
:1048f400000006003600f800809fbe00829fbe00c4
:10490400849fbe00869fbe003400f8000000200093
:10491400a00188008460a90061f607000000e0009f
:1049240003003200a8240200000000000000000080
:104934003400f9004f03be004f02be004f01be0019
:104944004f00be003600f900004006004200f800a7
:10495400801f78000002200010028800811f780068
:10496400829fbe00849fbe00869fbe00889fbe00bb
:104974008a9fbe008c9fbe008e1f78003600f80010
:104984003200f8002200f8002400f8002600f800a5
:104994002800f8002a00f8002c00f8003800f8007d
:1049a4003a00f8003c00f8003e00f8004000f8002f
:1049b4004400f8003400f80000428000801f7800b2
:1049c400004080000f08780012130200000000006d
:1049d40000408000900778004f0078000042880073
:1049e4003400f9004400f9004000f9003e00f900e9
:1049f4003c00f9003a00f9003800f9002c00f900f5
:104a04002a00f9002800f9002600f9002400f90022
:104a14002200f9003200f9003600f9004f0778004f
:104a24004f06be004f05be004f04be004f03be003c
:104a34004f02be004f01be004f00be004200f9000d
:104a440000000600e4004000110098000081eb0023
:104a54008081eb0022009800330098004100980008
:104a6400510098000008eb00000006008000eb00f5
:104a7400510098000000060010019000a200980068
:104a8400b2019000b3009800b2019000a101980017
:104a940031019800d00098001008e80000000600da
:104aa4001102be00e10f4200e08f4a0002003a000a
:104ab400d001900007003700e401400001003700f6
:104ac4008201780023019000b20f5200a28f5a0095
:104ad400fbff310023019000a200980031019800ef
:104ae400b3009800a1019800d00098001008e800d5
:104af40000000600d000900020019000b00190005a
:104b04003301980030019000a00190002301980027
:104b140011019000800f510002003a003201900010
:104b2400920098000001eb00520098001100e90087
:104b340080087800000006002ca3ef00f00020009d
:104b44004016880000000600501680006f40600088
:104b5400000006001400fa00889fbe008a9fbe0071
:104b6400f9ff070042e8b7002be32800883e200045
:104b740009002000f4ff07000045780042c8bf0088
:104b84008a4f5000fbff32000a80fb00801f780030
:104b94008b1f780000fe2f000f004000baee0700c4
:104ba4000002eb000801be008000eb002042800000
:104bb400fbf80700e4875700e10f500007003a00b4
:104bc4007c80570041fd07000002eb006011b80033
:104bd4008000eb002042800060f807000a40780063
:104be40042e8b700e3ff37004a00070007fe07006a
:104bf400d1ff070086fd070032c0b3008000eb0040
:104c04001000200036f80700204288000000e00071
:104c1400040032000002eb006011b8008000eb00d9
:104c24004ef807006033b8008002eb002400200037
:104c34008001eb0062092000c1e12800a0192200d4
:104c44005bf407006033b8008002eb00140020001e
:104c54008001eb006209200041e22800c05a2200d2
:104c640053f407006033b8008002eb0034002000e6
:104c74008001eb00a20f2000c1e22800c002220044
:104c84004bf4070064f5070000000500889fbe0090
:104c9400000478000808a300020032000800a10004
:104ca4000884e8006ef507003a08e20003003a00c1
:104cb400808420000000a100d0418800c041800011
:104cc400000444008004eb00d17c2000810f5400d8
:104cd40005003e00880f5000030031003a08b4007c
:104ce40080047800c8418800caf5070009007800ec
:104cf4004f04be0000000600000006003828ef0044
:104d040000000600c0418000e17c200000805000cb
:104d14000000060000fe2f004427b6009002200089
:104d2400303a8800f0f32f004427b600a109200090
:104d3400120020008007200033742000804978008e
:104d44008149780082497800123a80000200a0006c
:104d5400710520006004200023742000804978003d
:104d6400814978008249780002002700010021006f
:104d7400133a800003006100810f5000fcff3a00e9
:104d840001022000123a800002806000fdff320020
:044d94000000060015
:020000040000fa
:044d98000000000017
:020000040000fa
:0200000401f009
:04000000ffff0000fe
:020000040000fa
:0200000401f009
:04000800ffff0000f6
:020000040000fa
:0200000401f009
:04000c0078ff000079
:020000040000fa
:0200000401f009
:040010005bff000092
:020000040000fa
:0200000401f009
:040014007fff00006a
:020000040000fa
:0200000401f009
:04001800ffff0000e6
:020000040000fa
:0200000401f009
:04001c00dfff000002
:00000001FF
